:100000000C9479010C94B1010C94B1010C94B101E0
:100010000C94B1010C94B1010C94B1010C94B10198
:100020000C94B1010C94B1010C94851A0C94591BD9
:100030000C9498150C94B1010C94B1010C94B1017D
:100040000C94B1010C94B1010C94B1010C94B10168
:100050000C94B1010C941F160C94B1010C94B101D5
:100060000C94B1010C94B1010C94B1010C94B10148
:100070000C94B1010C94B1010C94B1010C94B10138
:100080000C94B1010C94B1010C94B1010C94B10128
:100090000C94B1010C94B1010C94B1010C94B10118
:1000A0000C94B1010C94B1010C94B101290014001D
:1000B0001A000800150017001C0018000C001200A0
:1000C00013002A002B2104001600070009000A0073
:1000D0000B000D000E000F0033002800E1001D0092
:1000E0001B00060019000500110010003600370043
:1000F00038003100E000E7000000000000000000D0
:100100002C4100000000E6000000215229001E00E2
:100110001F002000210022002300240025002600CB
:1001200027004C003900010001000100010001001E
:100130000100010001000100340001000100010084
:1001400001000100010001000100010001000100A7
:10015000010001000100010000000000000000009B
:100160000100000000002252000001003A003B00A4
:100170003C003D003E003F00400041004200430083
:1001800044004500010001000100010001000100E0
:100190000100010001000100010001000100010057
:1001A0000100010001000100010001000100010047
:1001B000010001000100010000000000000000003B
:1001C00001000000000001000000010010035000C9
:1001D0006500670061007300750073000000140380
:1001E0006D0065006C006F006E00620072006500BB
:1001F000640000000403090409023B00020100A09E
:10020000FA090400000103010100092111010001A4
:1002100022400007058103080001090401000103D1
:10022000000000092111010001226D000705820371
:100230002000011201000200000008EDFE00000194
:10024000000102000105010980A101850319012AAD
:10025000B700150126B700950175108100C0050C87
:100260000901A101850419012AA002150126A00295
:10027000950175108100C005010906A101850605DB
:100280000719E029E7150025019508750181020588
:1002900007190029EF1500250195F0750181020568
:1002A00008190129059505750191029501750391BC
:1002B00001C005010906A101050719E029E715009C
:1002C00025019508750181029501750881010507D1
:1002D000190029FF150026FF009506750881000505
:1002E000081901290595057501910295017503917C
:1002F00001C011241FBECFEFDAE0DEBFCDBF04B6D0
:1003000003FE18C08091B4029091B502A091B6028C
:10031000B091B7028730904BA740B04B59F4109280
:10032000B4021092B5021092B6021092B702E0E049
:10033000F8E3099511E0A0E0B1E0ECEFFBE302C0C7
:1003400005900D92A23AB107D9F722E0A2EAB1E0F6
:1003500001C01D92A43BB207E1F70E9463110C9407
:10036000BD1D0C9400001F93CF93DF93182FC62F51
:100370000E945312D82F882389F0111107C089EAEF
:10038000C11109C08AEA0E94280408C0113031F462
:10039000CC2349F08EE40E942804DC2F8D2FDF91BE
:1003A000CF911F9108958BE4EECF8330B8F4643081
:1003B000A8F44C3098F450E09CE0699F400D511D2A
:1003C0001124FA0190E3899FE00DF11D1124EE0F35
:1003D000FF1FE455FF4F85919491089581E090E0CF
:1003E00008950E94D501089581E0089581E008955F
:1003F0000E94F601089508950E94FB010895A5E06A
:10040000B0E0E5E0F2E00C94291D49835A83309175
:10041000A90189819A81311119C0662399F022239B
:1004200089F00E94E707182F682F89819A810E941E
:10043000C30769817A81812F0E94D40E2596E3E05B
:100440000C94451D0E94D507182FF3CF0E94E70793
:1004500069817A81F1CFFC01262F4081518162812F
:10046000738184810E94FF01089581E00895CF93F4
:10047000DF93EC0160E00E942B02BE010E94FC01B0
:10048000DF91CF91089508950E9492060E94430241
:100490002FEF84E39CE0215080409040E1F700C0C2
:1004A000000008950E9444020E94431608950E948D
:1004B00044020E94671608950F931F93CF93DF9312
:1004C0008C0161E00E942B02EC01B8010E94F8014E
:1004D000811106C080E0DF91CF911F910F910895A7
:1004E000B801CE010E94D1138823A1F3B801CE0137
:1004F0000E947011882371F3B801CE010E9443134A
:10050000882341F3F8018281882361F0C330FCE73E
:10051000DF07E9F058F4C115ECE7DE07A9F0C130B8
:10052000DC47B9F0C8010E94F401D5CFCB358CE788
:10053000D807A9F0CC35ECE7DE0771F0CA35DC4707
:1005400089F70E94180CEECF0E945202C3CF0E947E
:10055000200C0E945702BECF0E940E0CE3CF0E94D7
:100560001C0CE0CF0E9474150E94D90208950E94CD
:10057000DD020E9479150895089581E00895089597
:10058000CF93DF93D82F0E94BD02C82F882319F084
:100590008D2F0E94BF028C2FDF91CF910895089577
:1005A000CF93C82F0E94BC028C2F0E94C002CF9113
:1005B000089580E00E94D00208950E941F140E94B6
:1005C000D0020895CF930E941F14C82F8091A401D8
:1005D0008C1779F0C093A4010E9404166093A501C2
:1005E0007093A6018093A7019093A8018C2F0E947D
:1005F000D002CF910895ABE0B0E0E1E0F3E00C94DD
:100600002A1D4F83588769877A878B8761110E94DB
:10061000590B1E821D8285E0FE013796DE01119680
:1006200001900D928A95E1F78C819D81892B61F46F
:1006300049815A816B817C818D819E810E94810AD2
:100640002B96E2E00C94461D89819A8189238F3F85
:1006500079F3CE0101960E9435028111E9CFF0CFE6
:10066000FC01808191810E9419080895CF93C82FC1
:100670008823C9F08238C9F40E941F1481FD13C079
:1006800089E30E94110B0E947A0B2FEF87EE93E013
:10069000215080409040E1F700C0000089E30E94B3
:1006A000190B0E947A0BCF9108958338A1F40E9410
:1006B0001F1480FDF8CF83E50E94110B0E947A0B76
:1006C0002FEF81EE94E0215080409040E1F700C090
:1006D000000083E5E4CF8438A1F40E941F1482FD5A
:1006E000E2CF87E40E94110B0E947A0B2FEF81EE7C
:1006F00094E0215080409040E1F700C0000087E482
:10070000CECF8CEF8C0F813A90F46C2F809100014A
:10071000909101010E94A414882329F08C2F0E943B
:10072000190B0E947A0B8C2F0E94110BBACF80E21A
:100730008C0F883048F4C77081E001C0880FCA95DB
:10074000EAF70E943C0BADCFEBE5EC0FE33040F451
:10075000F0E0EF5BFE4F808190E00E944614A3CF53
:10076000C85ACB3108F09FCFEC2FF0E0EE0FFF1FFF
:10077000E55FFE4F808191810E946B1494CF8823A6
:1007800009F44DC0823879F40E941F1481FF47C0DC
:1007900089E30E94110B0E947A0B89E30E94190BD6
:1007A0000E947A0B0895833859F40E941F1480FF29
:1007B00036C083E50E94110B0E947A0B83E5EECFD1
:1007C000843859F40E941F1482FF29C087E40E94D4
:1007D000110B0E947A0B87E4E1CF9CEF980F913ABE
:1007E000E8F290E2980F983050F4877091E001C0E1
:1007F000990F8A95EAF7892F0E94420BD1CF9BE58A
:10080000980F933028F490E080E00E9446140895F9
:10081000885A8B3120F490E080E00E946B14089598
:100820001F93CF93DF93182FEB010E94360320977D
:1008300039F4812F0E94BF03DF91CF911F9108955A
:100840008FE99FE00197F1F700C000002197EFCFFB
:1008500070E060E0893311F460E570E00E941004FC
:100860000895882321F00E943C0B0E947A0B089582
:10087000882321F00E94420B0E947A0B0895B0E079
:10088000A0E0E5E4F4E00C94231D6C01D62FC72F03
:10089000FC011281058102950F700E94320BE82E37
:1008A0008823E9F0E12E1123D1F08C2F807F803452
:1008B00051F080E28D0F8830F8F0011104C08C2FC8
:1008C000807E8032C9F08091920282FF15C082E062
:1008D0000E94DD0B0E94320B91E0E82EE926BC2E2F
:1008E000B2949FE0B922FBE0FB15B8F1EB2DF0E0EC
:1008F000E154F24E0C94141DE12CF1CF0C2F0F702B
:10090000C07F11F00295007F112399F0002359F068
:1009100080E28D0F883010F0D11107C0802F0E9427
:100920003C0B0E947A0B8D2F63C0802F0E944C0BD2
:10093000F8CF8D2F0E94BF03002379F080E28D0F46
:10094000883010F0D11104C0802F0E94420B03C0E8
:10095000802F0E94520B0E947A0B2B2D2850330BB4
:100960002430310520F40E941F140E94D002EE2092
:1009700089F00E942E0B80FD0DC0F60112820E94AC
:10098000280B0E942107C6010E9456060E94280BD0
:100990000E943107CDB7DEB7E9E00C943F1D2C2F44
:1009A0002F70F22EC07FC03219F0F29480EFF8223F
:1009B000DD2381F0D13009F449C0112309F451C07D
:1009C000002309F448C0F601858180FFACCF8F7009
:1009D000858341C08091920282FD15C0112359F098
:1009E000FF2029F08F2D0E943C0B0E947A0B80E0A3
:1009F0000E943603B2CF80E00E94BF03FF2009F4BB
:100A0000ACCF8F2DA2CF112381F0011106C00E941F
:100A10005C0B8F290E943104A0CF0130C1F70E94E6
:100A20005C0B8F290E94630B98CF011106C00E94B6
:100A3000700B8F2D0E94380490CF013009F48DCFB8
:100A40008F2D0E9438040E94700B87CF112329F04C
:100A5000063008F082CF8F2DDDCF053008F07DCF36
:100A6000E8CF002331F3D93349F4FFEF27EE33E029
:100A7000F15020403040E1F700C000008D2F0E946F
:100A8000BF036BCF8C2F86958695837069F081307C
:100A900009F063CF8D2F9C2F9370111102C080E05D
:100AA00090E00E946B1459CF8D2F9C2F93701111E1
:100AB00002C080E090E00E9446144FCF8C2F8370DC
:100AC000A1F511114ACF4D2F429546954770440F1D
:100AD000440F2D2F2F7030E0042E02C0220F331F41
:100AE0000A94E2F790E080E0D4FF09C08FE090E044
:100AF00002C0880F991F4A95E2F780959095C69598
:100B0000C695C370822B932BC23049F058F4C13084
:100B100019F00E94F10621CF0E94E8061ECF0E9424
:100B2000FA061BCF0E94E50618CF8695112311F017
:100B30008C2F8170882309F410CF4D2F4295469554
:100B40004770440F440F2D2F2F7030E0042E02C049
:100B5000220F331F0A94E2F790E080E0D4FF09C02F
:100B60008FE090E002C0880F991F4A95E2F78095C8
:100B70009095C695C695C370822B932BC23049F0D1
:100B800058F4C13019F00E945C07E7CE0E94530769
:100B9000E4CE0E946507E1CE0E940907DECECF7049
:100BA000112329F08C2F0E9421078D2F33CF8D2FF9
:100BB0000E9438048C2F0E943107CFCED23F41F1E2
:100BC00060F4D03FB9F0D13F81F0112309F446C061
:100BD0000111A9CE8C2F8F711FC0D33F01F1D43FDB
:100BE000A1F78091920282FD24C08C2F8F71112376
:100BF00011F312C0112341F0053008F0AECE8C2F56
:100C00008F710E944307A9CE063008F0A6CEF7CF19
:100C10008C2F8F711111CFCF0E9421079ECE1123EF
:100C200029F08C2F8F710E94150797CE0E94100714
:100C300094CE112349F0CF718C2F0E94210763E0DD
:100C40008C2F0E94BF0B89CE81E00E94DD0B023009
:100C500008F483CE82E00E94DD0B7FCE002359F0A2
:100C6000D93309F00BCF8FEF97EEE3E0815090403E
:100C7000E040E1F701CF8C2F8F719DCF0F931F9331
:100C8000CF93DF93EC01688179818A810E942408E7
:100C90008C010E946E070E94E406B801CE010E94FA
:100CA0003F04DF91CF911F910F910895CF93DF9370
:100CB000EC018B819C81892B29F088819981892382
:100CC0008F3F51F4DF91CF910895CE010E943E06EF
:100CD000CE010E943702F6CFCE010E945C02811144
:100CE000F4CF0E94320B882369F38A81882351F361
:100CF0008091920282FFE6CF82E00E94DD0BE2CF7C
:100D000090E080E00E94461490E080E00E946B1426
:100D10000E94590B0E947A0B08950E94210B0E9499
:100D2000800608950E94490B0E948D0608959295B1
:100D30009F70963091F058F4925F9F70923058F403
:100D4000803F19F030F4883E30F481E008959A5FD6
:100D5000F4CF843FD1F380E00895883EB0F3813F23
:100D6000D1F7F3CFFC0183819481892B29F0808115
:100D7000918189238F3F11F480E0089580819181D2
:100D80000E9419080E9497060895A5E0B0E0EBECD8
:100D9000F6E00C942A1D2596E2E00C94461DA6E090
:100DA000B0E0E5EDF6E00C942A1D2696E2E00C9406
:100DB000461D08950E94D90608950E94DA06909370
:100DC000C5018093C401089508950E94DD06089529
:100DD0002091C4013091C501822B932B0E94DD0626
:100DE00008952091C4013091C501822393230E946C
:100DF000DD0608952091C4013091C5018227932713
:100E00000E94DD0608950E94D90608950E940307F6
:100E100008950E9406079093C3018093C20108952C
:100E200090E080E00E940907089521E030E0A901E8
:100E300002C0440F551F8A95E2F7CA010E940907B4
:100E4000089521E030E002C0220F331F8A95E2F7B7
:100E50008091C2019091C301822B932B0E940907BC
:100E6000089521E030E002C0220F331F8A95E2F797
:100E7000209530958091C2019091C30182239323E4
:100E80000E940907089521E030E002C0220F331FBD
:100E90008A95E2F78091C2019091C301822793273E
:100EA0000E94090708952091C2013091C301822B4D
:100EB000932B0E94090708952091C2013091C3012C
:100EC000822393230E94090708952091C201309143
:100ED000C301822793270E94090708950895262FAA
:100EE000277091E001C0990F2A95EAF723E07695E3
:100EF00067952A95E1F7660F771F660F771FFA014E
:100F0000E60FF71F50E040E0682F70E08191DF01AD
:100F100011979B01042E02C0369527950A94E2F79B
:100F2000217021952827292328272C934F5F5F4F75
:100F30004430510559F70895A82FA77023E09695DE
:100F400087952A95E1F7880F991F880F991FFB0154
:100F5000E80FF91F50E040E080E0219130E00A2ED8
:100F600002C0369527950A94E2F721703327042EA4
:100F700001C0220F0A94EAF7822B4F5F5F4F443083
:100F8000510559F70895262F943070F48C3060F491
:100F9000682F70E08CE0989F600D711D11244AEA63
:100FA00051E0822F0E946F070895292F943068F432
:100FB0008C3058F490E06AEA71E03CE0239F800DA9
:100FC000911D11240E949C07089580E00895B0E0CF
:100FD000A0E0EDEEF7E00C94231D7C010091C2012E
:100FE0001091C3018091C4019091C501082B192B68
:100FF000CFE0D0E0CC24C394D12CBC2EC6010C2E63
:1010000002C0880F991F0A94E2F780239123892B4D
:1010100049F4219790F7B12C8B2DCDB7DEB7E9E0DD
:101020000C943F1DB7018C2F0E94E00E019789F3AD
:10103000F3CFCF93DF93EC010E94E707BE010E943C
:10104000E00EDF91CF9108951F93CF93DF93EB01D3
:101050009091A901992339F0CB010E941908DF91E1
:10106000CF911F910895882369F0CB010E94E70773
:10107000182F682FCE010E94C307BE01812F0E9446
:10108000E00EEDCFCB010E94D507182FF6CF1F93AE
:10109000CF93DF93C091C60116E08091C7018C13F6
:1010A00004C0DF91CF911F910895D0E01C9FF00103
:1010B0001D9FF00D1124E853FE4F40815181628144
:1010C0007381848195810E94CF062196C770E5CFF8
:1010D0004091F8015091F9016091FA017091FB0182
:1010E0008091FC019091FD010E94CF06089520910E
:1010F000C6019091C70156E0291302C080E008950F
:1011000030E0529FF001539FF00D1124E853FE4F41
:101110007181761306C07081781303C072817413D5
:1011200004C02F5F3F4F2770E7CF81E008951F93E2
:10113000CF93DF938091FD01807F09F04BC08091B8
:10114000FA01882309F446C08091C601C091C70105
:101150004091F8015091F9016091FB017091FC01FF
:10116000D42FD52316E0C817A9F190E061157105B9
:10117000A9F1DF3F99F1189FF001199FF00D11249B
:10118000DF01A853BE4F11962C911197251326C04D
:101190002C91241323C012962C91129721111EC05A
:1011A00013962D913C91261B370B283C3105B0F44A
:1011B0008091FD018F7080618093FD01E353FE4FAC
:1011C00080818F708061808388EF91E00E94560655
:1011D0000E944708DF91CF911F9108950196877073
:1011E000C2CFA1E1B0E0E7EFF8E00C94201D8C0144
:1011F00085E0F801DE011D9601900D928A95E1F7D8
:10120000F801F28088EFA82E81E0B82E4091FB0112
:101210005091FC014115510509F45AC19091F80112
:101220002091F901892F82238F3F09F451C1C08099
:10123000D18083809480E090FA01B401641B750B27
:10124000EE2009F4F6C08091FD01382F307F683C14
:10125000710508F0AFC031117AC0EF2C2D1116C006
:101260009C1114C0F11012C08F7080618093FD0139
:101270000E946808C5010E9456068091FD01F80190
:1012800085838E2D6196ECE00C943C1D81149104B5
:10129000C9F18C2D8D218F3FA9F181E08F2580FF31
:1012A00005C04F2D6D2D8C2D0E947708811491045F
:1012B00059F18C2D8D218F3F39F181E08F25F82F49
:1012C000F170BF2E80FF39C04F2D6D2D8C2D0E94E7
:1012D0007708A82E811131C0CD86DE868D859E854A
:1012E0000E941908292F22952F70243078F49F70BE
:1012F0002230A8F09923B9F0F8019581907F99F4F4
:10130000EA2CBFCF80E0CBCF80E0D9CF2A5F2F700F
:10131000223068F0C8010E945606AB2CF1CF992309
:1013200011F0882369F3805E883050F3F3CF803F5B
:1013300038F3815F833070F7E3CFFF2009F4A1CF4A
:101340008091FD0181608093FD01E12C9ACF2D11E8
:1013500005C09C1103C0FF2009F486C0C8010E948B
:10136000B206882319F1FF2009F18091FD01803236
:1013700070F02091F8013091F90138872F83198698
:101380009B868A868C87CE0107960E94560686E049
:10139000F801A8EFB1E001900D928A95E1F70E9463
:1013A00097080E946808EE24E3946BCFC8010E945E
:1013B0005606F9CF311114C0782D998A888AA60172
:1013C0006F2D89890E94C50688EF91E00E9456061C
:1013D00086E0F50111928A95E9F70E946808B5CF79
:1013E0002D110EC09C110CC0F1100AC08583C801DC
:1013F0000E94560686E0F50111928A95E9F741CFE1
:10140000C8010E94B206882389F2FF2079F28091F8
:10141000FD01803208F4BBCF2091F8013091F90131
:101420003A8329831B829D828C828E83CE01019612
:10143000ACCF683C710508F03DC0EF2CFF2009F4EB
:10144000B5CF2D1129C09C1127C08091FD0180FDD1
:101450001AC0982F907FB9F08583903F31F0982F74
:10146000907F905F8F70892B8583C8010E945606FC
:1014700086E0F801A8EFB1E001900D928A95E1F7BE
:101480000E946808FECE86E0F801A8EFB1E0019066
:101490000D928A95E1F7F5CEC8010E94B20681113E
:1014A00076CF8091FD0181608093FD01C8010E948B
:1014B0005606E7CE782D998A888AA6016F2D8989EC
:1014C0000E94C50686E0F50111928A95E9F7D8CF0A
:1014D000FF2009F46BCFC8010E94B206E82E8823D2
:1014E00009F464CF86E0F801A8EFB1E001900D9215
:1014F0008A95E1F788EF91E00E9430030E949708F7
:10150000BFCFACE0B0E0E7E8FAE00C94291D4F83D0
:10151000588769877A878B879C87CE0107960E94B8
:10152000F1088823B1F08A859B85892B39F04F819A
:101530005885842F85238F3F09F06CC016E0809179
:10154000C6019091C701891343C02C96E3E00C9427
:10155000451D86E0FE013796DE01119601900D9241
:101560008A95E1F78A859B85892B41F38F81988540
:1015700089238F3F19F32091C70130E0C9010196FB
:10158000877099274091C6014817190671F40E9487
:1015900092061092C7011092C60186E0E8EFF1E0D2
:1015A000DF011D928A95E9F7C9CF96E0929FD0019D
:1015B000939FB00D1124A853BE4FFE0131960190A8
:1015C0000D929A95E1F78093C7010E944708B6CF24
:1015D000819FC001112488539E4F0E94F1088823E7
:1015E00009F4B3CFE091C6011E9FF0011124E85326
:1015F000FE4F4081518162817381848195810E9477
:10160000CF068091C60190E001968770992780935C
:10161000C60195CF69857A858B859C850E94CF060A
:101620008DCF682F80910001909101010E942415B7
:101630000895682F80910001909101010E94321558
:10164000089580910001909101010E944015089534
:1016500080911E02859585958595089580911E023D
:101660008770089590911E02977081E009F480E0E0
:10167000089580914102089590914102892B8093B1
:1016800041020895809590914102982390934102E0
:10169000089510924102089590914002892B809301
:1016A00040020895809590914002982390934002C3
:1016B000089510924002089580911F0208950895A0
:1016C0000E945F0B08959091920292FF08C0909142
:1016D0001F02981721F080931F020E94600B08954B
:1016E00080911F02882329F010921F0280E00E943F
:1016F000600B0895CF93DF93E0910001F091010119
:10170000809141028083E0910001F091010180818C
:1017100090914002892B808390911F02992381F040
:10172000E0910001F09101018081892B80838091FB
:101730000001909101010E94901481110E94700B90
:10174000C0910001D091010140E250E06EEF71E0E4
:10175000CE010E94651D892B59F080E2FE01AEEF9B
:10176000B1E001900D928A95E1F7CE010E942C1410
:10177000DF91CF91089508950E94BB0B0895909139
:10178000920292FF11C098E0899F90011124622B70
:1017900060931E020E94210780911E028595859507
:1017A00085950E94BC0B08950E9421070895109210
:1017B0001E0280E00E94BC0B089590911E0280954D
:1017C000892380931E02282F277091F4282F082E3A
:1017D000000C330B9217130659F09091920292FF6E
:1017E00007C08595859585950E9431070E94D70B86
:1017F00008959091920292FB222720F9281769F010
:1018000080FB92F9909392028091910290919202C2
:101810000E94410C82E00E94DD0B089580919202AB
:1018200082FB882780F991E089270E94F90B0895AF
:1018300081E00E94F90B089580E00E94F90B089561
:101840006FEF7FEF90E080E00E94A71D089590E089
:1018500080E00E94831D21E0873E9E4F09F020E03A
:10186000822F089582E090E00E947B1D089583E01E
:1018700090E00E947B1D089584E090E00E94831D0B
:101880000895BC0184E090E00E94A71D0895AB017B
:10189000BC018FE090E00E949B1D0895AB01BC014C
:1018A00083E190E00E949B1D089560E070E0CB0111
:1018B0000E944E0C089560E070E0CB010E94470C3E
:1018C0000E94550C089567EE7EEF90E080E00E9444
:1018D000A71D60E082E090E00E94891D60E083E047
:1018E00090E00E94891D1092C5011092C40160E031
:1018F00074E184E090E00E94A71D60E086E090E043
:101900000E94891D6FEF87E090E00E94891D40E0F2
:1019100050E0BA0188E090E00E949B1D60E08DE0FD
:1019200090E00E94891D40E050E0BA0188E190E01B
:101930000E949B1D60E087E190E00E94891D40E0CD
:1019400050E0BA018CE190E00E949B1D70E060E0E5
:1019500080E290E00E94A71D40E050E0BA0188E1DB
:1019600090E00E949B1D0E945B0C08950E94630CF6
:101970000895682F8EE090E00E94891D0895A5E0EB
:10198000B0E0E5ECFCE00C94281D0E94F8158C01F9
:10199000809142029091430280179107A1F08FEF4E
:1019A00089838A831B820E94F8158160782F9D832A
:1019B0008C8349815A816B818D810E94FB02109337
:1019C0004302009342022596E4E00C94441D0E94D9
:1019D00004166093540270935502809356029093BC
:1019E0005702609350027093510280935202909379
:1019F000530208950E940416609354027093550296
:101A0000809356029093570260934C0270934D025C
:101A100080934E0290934F020895089508950E9476
:101A20000E0D089508950E94120D089581E0089505
:101A30008AEC9FE00E9415140E940D0D0E940F0D6C
:101A400008950E94160D08950E94210D089508958D
:101A500008950E94270D0E94280D08950E94E90F05
:101A60000E94CF0208950E94EF150E9455120E9415
:101A7000C4100E942E0D0E94130D0895A5E0B0E041
:101A8000E4E4FDE00C941F1D0E94160D81110DC0B1
:101A90000E94BF0C0E94C61281110E94FA0C0E9483
:101AA000E2022596EDE00C943B1D0E94DA1024E43E
:101AB000822E22E0922E640110E0F601E190F19076
:101AC0006F01812F0E940F101F5F143009F449C06D
:101AD000E816F90691F38091580281FD0E941810D2
:101AE0000E94240D782E10E0812F0E940F107C019F
:101AF000F401A190B1904F018A159B0561F100E0BE
:101B0000CC24C394D12CAE24BF24C5018C219D21AB
:101B1000892BC1F07720B1F009831A8321E0C70136
:101B20008C219D21892B09F420E02B830E94F8153C
:101B30008160782F9D838C8349815A816B818D814F
:101B40000E94FB020F5FCC0CDD1C0C30F1F6F4019F
:101B50003297F182E0821F5F143031F60E94E70C69
:101B600099CFE816F90609F0B6CF92CF1F93CF931D
:101B7000DF930E94E50EEC01C11580E5D807F0F572
:101B8000C11580E4D80708F09CC0C03ED10520F5FF
:101B9000CD3CD10508F082C0C83AD10578F4C53AE9
:101BA000D10508F073C0C130D10519F1209709F1B2
:101BB000C430D105F0F4D0E0C0E01BC0C33CD10577
:101BC000D0F7C85AD0E0CC0FDD1FCC5BDE4F0990B8
:101BD000D881C02DD4640DC0C11580E2D80708F0AB
:101BE000D1C0C11581E0D80708F05AC0C83ED10560
:101BF00010F7CE01DF91CF911F910895C03682E595
:101C0000D80718F5C03482E5D80708F06BC0C03299
:101C100082E5D80708F05FC0C11582E5D80708F44F
:101C200097C02C2F2695269580E2289F900111249D
:101C30008C2F8370C1E0D0E002C0CC0FDD1F8A95ED
:101C4000E2F7C22BD32BDD68D4CFC03A82E5D807A8
:101C500060F4C03882E5D80708F459C0CF71D0E0ED
:101C6000DC2FCC27C46FD06AC4CFC03C82E5D80734
:101C700008F462C0C03E82E5D80708F09CCFDC2F94
:101C8000CC27CC27DF71C06FD06AB3CFC55AD0E064
:101C9000C658DE4FC881D0E0D064ABCFD065A9CFA5
:101CA0008D2F0E94870F182FCE0199270E94E50ED5
:101CB000C12FD0E0DC2FCC27CC27DF71C82BD92B4C
:101CC00098CFCE0199270E94E50ECC27DF70C82B54
:101CD000D92BD06A8ECFCF71D0E0DC2FCC27C16F4B
:101CE000D06A87CF2C2F26952695277080E2289FD3
:101CF000900111248C2F8370C1E0D0E002C0CC0F82
:101D0000DD1F8A95E2F7C22BD32BDC6872CF2C2F14
:101D100026952695277080E2289F900111248C2F0C
:101D20008370C1E0D0E002C0CC0FDD1F8A95E2F7DE
:101D3000C22BD32BDA685DCF8C2F8F710E94870F57
:101D4000C82FD0E0DC2FCC27CC27DF71D06251CF59
:101D50008C2F8F710E94870F55E0D695C7955A95A5
:101D6000E1F7CF70D0E0DC2FCC27282F30E084FFC4
:101D700005C044E0220F331F4A95E1F7C22BD32B55
:101D8000D06937CF8D2F8F710E94870F182FCE010A
:101D900099270E94E50EC12FD0E0DC2FCC27CC275D
:101DA000DF71C82BD92BD2CF462F743030F46C3072
:101DB00020F4672F0E94F101089590E080E00895DB
:101DC0000E94D40E0E94B60D089582389105B9F193
:101DD000B0F48133910509F47DC048F4893291054E
:101DE00009F46DC08A32910509F47BC008958533EA
:101DF000910509F45FC08933910509F10895833E87
:101E00009105D9F138F4803E910529F1823E910582
:101E100079F10895863E9105D9F1873E910509F43F
:101E20003EC0843E910541F52091920221FF24C0DD
:101E30008091910284FD19C087EE90E00895209171
:101E40009102237009F05AC02091920223FF14C01E
:101E500089E290E008952091910220FD38C03091F0
:101E6000920230FF09C024FF43C090E080E0089553
:101E70002091910222FDF7CF08952091910222FD39
:101E80003AC03091920230FD39C024FFF5CFEDCF3A
:101E90002091910223FFF0CF24FDE7CFCDCF2091F9
:101EA000910223FD2EC03091920231FFEECF84EEDD
:101EB00090E008952091910225FFDECFC9CF2091B7
:101EC000910225FD21C02091920223FFD5CF89E305
:101ED00090E0D2CF2091910226FFCECF8AE290E00F
:101EE00008952091910226FFC7CF81E390E00895E5
:101EF00083EE90E0089582EE90E0089580EE90E009
:101F0000089586EE90E0089585E390E0089590911D
:101F1000910292FF06C0282F28712830F9F4877F9C
:101F2000846093FF06C0282F28712831F1F4877E42
:101F300084612091920220FF06C0382F387138301A
:101F4000D9F4877F816021FF06C0282F28712831AE
:101F5000D1F4877E816194FD877E0895282F2471B6
:101F60002430F9F68B7F8860DCCF282F2471243150
:101F700001F78B7E8861DDCF382F3171313019F751
:101F80008E7F8860E0CF282F2171213121F78E7E4E
:101F90008861E1CF80E008950E94200C08950E949E
:101FA000DA102FEF86E791E0215080409040E1F772
:101FB00000C000000E94DA1080E00E940F1080FF35
:101FC00004C00E94CC0F0E94431608950E94CF0FB8
:101FD00008950E94270C811102C00E94B60C0E9435
:101FE000320C809358020E943C0C90939202809392
:101FF00091020E94E60F0E94370C90E00E94E506D5
:102000008091C2019091C3010E940607089508952E
:102010000E940710089508950E940B100895E82F5C
:10202000F0E0EE0FFF1FE556FD4F8081918108958E
:10203000089580EA8A95F1F7089500C008950E94F6
:1020400019100895F894E82FE295EF70F0E031A1AF
:10205000282F2F7081E090E001C0880F2A95EAF7C1
:10206000982F9095932391A392A1892B82A3789482
:102070000895CF93DF9380EF0E94221081EF0E949A
:10208000221084EF0E94221086EC0E942210CDE7DD
:10209000D1E089918F3F11F00E94221081E0C93870
:1020A000D807B9F7DF91CF910895AF92BF92DF9231
:1020B000EF92FF920F931F93CF93DF938C01D62E55
:1020C000C62FD0E0CE0187579E4F7C01FC012081B6
:1020D0002F3F09F44CC0F894E22FE295EF70F0E046
:1020E00031A12F7081E090E001C0880F2A95EAF7B6
:1020F000932F982B91A392A18095892382A3789402
:102100000E941D10EDE7F1E041E050E0B12CA12C60
:1021100021912F3FB1F1A22FA295AF70B0E0909620
:102120008C9190E02F7002C0959587952A95E2F7E3
:1021300080FD27C0CA01A82AB92A440F551F81E093
:10214000E938F80729F7F70180818F3F11F00E94E5
:10215000221061E0A114B10409F460E08D2D0E9409
:102160001F10CC0FDD1FC00FD11FB982A882DF91D5
:10217000CF911F910F91FF90EF90DF90BF90AF90A4
:10218000089590E080E0D7CF0E94391088E0EBE915
:10219000F2E0DF01982F1D929A95E9F7E3E9F2E06A
:1021A000DF011D928A95E9F784E00E9415110E94D3
:1021B00008100895A8E0B0E0E0EEF0E10C94271DCF
:1021C0008E010F5F1F4F88E0F80111928A95E9F7A1
:1021D000F12C6F2DC8010E945510F394F4E0FF120A
:1021E000F8CF48E050E0B80183E992E00E94651D15
:1021F00021E0009709F420E0892B41F088E0F80104
:10220000A3E9B2E001900D928A95E1F744E06BE911
:1022100072E083E992E00E941611182F0E940C10C0
:10222000812F2896E5E00C94431D0895CF92DF920C
:10223000EF92FF921F93CF93DF936C017B01C42F2A
:10224000222349F081E080935B020E94F81590936D
:102250005A028093590210915B0211110AC010E0DA
:10226000812FDF91CF911F91FF90EF90DF90CF9062
:1022700008958091590290915A020E941016059774
:1022800070F3D0E0CC0FDD1FAE01B601C7010E9494
:10229000651D892B41F0AE01B601C7010E94721D78
:1022A00010925B02DDCF10E0FBCF0E94D6170E9498
:1022B000330D0E94E31708950E94E8170E943E0D17
:1022C0000E94021808950E9491150E94BC170E9456
:1022D000180D0E9455110E945C110E94290DFBCF20
:1022E000CF93DF93EC01FB018281882309F4D2C0F4
:1022F0009E0130572332310508F0B2C00E943C0CD9
:102300009093920280939102FE01E150F047E232F5
:10231000F10520F4E553F24E0C94141D80919102C6
:1023200081608093910293C0809192028860809333
:1023300092028DC0809191028260F3CF80919102D0
:102340008460EFCF809191028860EBCF8091920200
:102350008160EDCF809192028260E9CF80919102FD
:102360008061DFCF809191028062DBCF809191020A
:102370008064D7CF0E949206809191028068D1CF6D
:10238000809191028C60CDCF809192028360CFCFFB
:10239000809191028E7FC5CF80919202877FC7CFB7
:1023A000809191028D7FBDCF809191028B7FB9CFBB
:1023B00080919102877FB5CF809192028E7FB7CFB7
:1023C000809192028D7FB3CF809191028F7EA9CFB1
:1023D000809191028F7DA5CF809191028F7BA1CFBB
:1023E0000E949206809191028F779BCF80919102FB
:1023F000837F97CF809192028C7F99CF80919102B9
:1024000082FB992790F921E0922790FB82F990FBBB
:1024100083F987CF80919202982F909591708E7F4B
:10242000892B90FB81F983CF90919102892F8F7B2B
:1024300096FF806476CF0E94920690919102892F38
:1024400097FB87F980586DCF81E00E94B90C80918D
:102450009102909192020E94410C0E94920680E0AB
:10246000DF91CF91089580E0F0CF90919102892F74
:102470008F7E94FF806155CF90919102892F8E7F3E
:1024800090FF81604ECF90919202892F877F93FFBA
:1024900088604DCF81E0E4CF8FE891E00197F1F7BC
:1024A00000C00000089581E00895FF920F931F93EC
:1024B000CF93DF9382E080935E020FE911E0CDE9D4
:1024C000D1E0AE01D80121E030E08D91E82FE29516
:1024D000EF70F0E0F1A08F70B90101C0660F8A952E
:1024E000EAF7962F90959F2191A382A1862B82A334
:1024F000FA018191AF01E82FE295EF70F0E0F1A0D1
:102500008F70B90101C0660F8A95EAF7962F9095F2
:102510009F2191A382A1862B82A3F1E0A13ABF075C
:10252000A1F60E944C1260915E0241E652E0FA016F
:102530008E2F841B861728F0CDB7DEB7E5E00C940C
:10254000431DD8012D918D01A22FA295AF70B0E04F
:1025500090968C9190E02F7002C0959587952A9562
:10256000E2F781709991A92FA295AF70B0E0909693
:102570002C9130E09F7002C0359527959A95E2F72F
:1025800090E020FD92E0892B8193D2CFB0E0A0E0D3
:10259000ECECF2E10C94241DF12CE12C84E0C82E2B
:1025A000D12C80915E02F81630F08E2DCDB7DEB7BB
:1025B000E8E00C94401D0F2D10E0F801E156FE4FAD
:1025C0008081E82FE295EF70F0E0E0A1F0E08F70FD
:1025D00002C0F595E7958A95E2F7E170D801A35618
:1025E000BE4F2C91A22FA295AF70B0E090968C9127
:1025F00090E02F7002C0959587952A95E2F780FDAF
:1026000040C080E08E2BD801AF59BD4FEC919E2F7A
:1026100093709817A1F1EE0FEE0FE82BEC93EF708B
:10262000F0E0E357FE4FE801C15ADD4F8081988109
:10263000890F888320E084305CF0F801E45AFD4F74
:1026400080818F5F808360E08F2D0E94B30121E045
:1026500088818D3F5CF4F801E45AFD4F8081815000
:10266000808361E08F2D0E94B30121E08881082ED4
:10267000000C990BB6010E94001D8883E22AF39496
:1026800090CF82E0BFCFCF93DF93EB0186319C47A1
:1026900011F50E94390B9A81992399F08A7A91E079
:1026A00009F490E090936302811109C089E20E94CD
:1026B000110B0E947A0B80E0DF91CF91089585E3A2
:1026C000F6CF80916302811104C089E20E94190B48
:1026D000F0CF85E3FBCF81E0EFCF0F931F93CF9334
:1026E000DF93C42FD22FFC0182818823C9F040934D
:1026F00066020E94F815909365028093640280E25E
:102700008C0F883040F4C77081E001C0880FCA95F3
:10271000EAF70E943104DF91CF911F910F91089544
:1027200010916602141332C0809164029091650288
:102730000E941016883C910548F5C0E2CD0F1D1788
:10274000B9F080E2810F883040F4177081E001C059
:10275000880F1A95EAF70E943804C83048F481E0DF
:102760009D2F977001C0880F9A95EAF70E94310457
:10277000802F0E942804C83070F6D77081E001C015
:10278000880FDA95EAF70E943804C5CF80E28C0FF3
:10279000883008F6C77081E001C0880FCA95EAF753
:1027A000F2CF0F93DB0188519C4787309105A0F54C
:1027B000FC01E351F24E0C94141D06E221EE41EEB1
:1027C0006AE17CE7CD010E946D1380E00F910895CE
:1027D00007E225EE45EE6BE17CE7F4CF06E221EE61
:1027E00040EE68E17CE7EECF07E225EE44EE69E1DA
:1027F0007CE7E8CF06E221EE42EE6CE17CE7E2CF37
:1028000007E225EE46EE6DE17CE7DCCF08E221E051
:1028100045EE6EE17CE7D6CF12968C91882319F0B5
:1028200010926602D3CF81E0D1CF9093A301809321
:10283000A201089590936C0280936B020895E09139
:102840006B02F0916C02309729F00190F081E02D3D
:102850000995089580E00895E0916B02F0916C0273
:10286000309799F020910A01222359F0209191028A
:1028700027FF07C0DC012C9111962C93119726E0BD
:102880002C930280F381E02D09950895A3E0B0E038
:10289000ECE4F4E10C942A1D2091690230916A0263
:1028A00028173907A1F090936A0280936902E0919A
:1028B0006B02F0916C02309751F023E029839B83E7
:1028C0008A830680F781E02DCE0101960995239633
:1028D000E2E00C94461DA3E0B0E0E1E7F4E10C94E3
:1028E0002A1D209167023091680228173907A1F04C
:1028F0009093680280936702E0916B02F0916C0202
:10290000309751F024E029839B838A830680F781E6
:10291000E02DCE01019609952396E2E00C94461D28
:10292000FC01329680910A01882321F08091910266
:102930009EE187FF96E080E0915008F40895219190
:102940002223D1F38F5FF8CF662301F120910A0192
:102950002223F1F02091910227FF1AC0462F4695BD
:10296000469546954E3190F4677021E030E002C004
:10297000220F331F6A95E2F7840F911DFC018281BB
:1029800090E02823392381E0232B69F480E0089527
:10299000FC01329608962191261721F0E817F907D5
:1029A000D1F7F4CF81E008959C01FC0132969FEFAE
:1029B00080E04191461751F09F3F19F4411101C049
:1029C000982F8F5F8630A9F79F3F09F40895290F4C
:1029D000311D97FD3A95F90162830895FC01329605
:1029E00008962191261303C0DF0111971C92E81766
:1029F000F907B9F70895E62FE695E695E695EE31E5
:102A000068F4E80FF92FF11D677021E030E001C094
:102A1000220F6A95EAF78281822B82830895E62F3E
:102A2000E695E695E695EE3170F4E80FF92FF11D85
:102A3000677021E030E001C0220F6A95EAF7209527
:102A4000828128232283089520910A01222339F0CC
:102A50002091910227FF03C00E94FB1408950E9459
:102A6000D414089520910A01222339F02091910273
:102A700027FF03C00E940F1508950E94EE140895C9
:102A8000FC01329680910A01882351F080919102D5
:102A900087FF06C08EE1DF011D928A95E9F7089550
:102AA00086E0F9CF08950E9452150895811106C05D
:102AB00081E080936D020E945315089582E0F9CF62
:102AC00083E080936D020E94531508950E9456156D
:102AD000089581E080936D020E94531508950E942D
:102AE00069150895089508950E947315089508952D
:102AF00008950E9472150895CF930E9477150E9441
:102B0000DA100E947815C0E08C2F0E940F10892BDC
:102B100031F4CF5FC430C1F780E0CF91089581E0F8
:102B2000FCCF85B7806885BF85B7806885BF08956D
:102B30001F921FB61F9211248F939F93AF93BF9341
:102B400080916E02811113C08091A3029091A40222
:102B5000A091A502B091A6024196A11DB11D80933E
:102B6000A3029093A402A093A502B093A602BF91E2
:102B7000AF919F918F911F901FBE1F9018958091CC
:102B8000AB02843031F10E94B20210926E0288E1F1
:102B900090E020E40FB6F894A895809360000FBEF3
:102BA0002093600083B7817F846083BF83B7816097
:102BB00083BF7894889583B78E7F83BF0FB6F894D0
:102BC000A8958091600088618093600010926000F9
:102BD0000FBE08950E9492060E94B702089582E0F7
:102BE00084BD93E095BD9AEF97BD80936E000895E4
:102BF0002FB7F8948091A3029091A402A091A5020E
:102C0000B091A6022FBF08952FB7F8946091A30248
:102C10007091A4028091A5029091A6022FBF089501
:102C20009C014FB7F8948091A3029091A402A091C7
:102C3000A502B091A6024FBF821B930B0895789412
:102C40001F921FB61F9211248F939F93AF93BF9330
:102C50008091A3029091A402A091A502B091A60236
:102C60000196A11DB11D8093A3029093A402A0938D
:102C7000A502B093A602BF91AF919F918F911F9033
:102C80001FBE1F90189581E08093E00080E2809342
:102C9000D8001092C9008FE19EE40197F1F700C0BF
:102CA000000087E090EBDC018093B4029093B502C2
:102CB000A093B602B093B70288E19CE00FB6F894F7
:102CC000A895809360000FBE90936000FFCF88E1CD
:102CD0009CE00FB6F894A895809360000FBE909387
:102CE0006000FFCF80918F02089508959B01BA0183
:102CF0009091AB029430E9F48F708093E9009FEFDC
:102D00008091E800915085FD06C085ED8A95F1F728
:102D100000009111F5CF8091E80085FF0AC050E0D6
:102D200040E0C9010E9479188091E8008E77809375
:102D3000E800089543E050E0BC0182E00E9476166E
:102D40000895CF93DF93EC0180910A01811111C0A6
:102D500048E050E0BE0181E00E94761680E2FE016C
:102D6000AFE6B2E001900D928A95E1F7DF91CF9145
:102D700008958091910287FF05C040E282E050E013
:102D8000BE01EACF48E081E0FACF8091AA0281112A
:102D900009C00E94091A0E94661A8091E2008460AC
:102DA0008093E20008951092AA0208950E94691586
:102DB00008956091A70281E0611101C080E00E9446
:102DC000601508959091AB0281E0943009F080E0A5
:102DD0006091A7020E946615089542E061EC81E0CF
:102DE0000E94851942E261EC82E00E94851990916F
:102DF000AB0281E0943009F080E06091A7020E946C
:102E0000561508958091AD02833009F461C030F405
:102E10008130D1F1823009F49EC008958A3009F4DE
:102E20008AC08B3009F46FC0893009F050C080919E
:102E3000AC02813209F04BC08091B0029091B10296
:102E4000029708F044C08091E800877F8093E800F3
:102E50008091E80082FF37C09091F3008091F200EA
:102E6000029731F48091F100813011F0863021F425
:102E70008091F10080938F028091E8008B7780939E
:102E8000E8000E94B91923C08091AC02813AF9F49C
:102E90008091E800877F8093E8008091B002909154
:102EA000B102892B61F460E28FE692E070E00E944B
:102EB000C8188091E8008B778093E800089560E05F
:102EC00090E080E0F3CF8091AB028111C1CF0895F3
:102ED0008091AC02813AD9F78091B0029091B10211
:102EE000892BA9F78091E800877F8093E800809183
:102EF000E80080FFFCCF80910A018093F10080916F
:102F0000E8008E77BCCF8091AC02813201F78091CE
:102F1000B0029091B102892BD1F68091E800877FB1
:102F20008093E8000E94B9198091AE0280930A0153
:102F30000E94920608958091AC02813241F6809100
:102F4000E800877F8093E8000E94B9198091AF0262
:102F50008093900208958091AC02813A09F0B7CF36
:102F60008091E800877F8093E8008091E80080FFEF
:102F7000FCCF80919002C1CF84B7877F84BF0FB60A
:102F8000F894A89580916000886180936000109209
:102F900060000FBE80E890E00FB6F8948093610067
:102FA000909361000FBE0E946F1508950E94091A48
:102FB0000E94661AE2EEF0E080818460808378945B
:102FC0000E94E51C089582E091E00E941A14089581
:102FD0008091AB02853031F48091AB02853019F0DD
:102FE0000E94EA1508950E94BF158091A9028823C6
:102FF00099F30E947C15882379F30E9463180E943C
:103000009206EACF08959A014091B2025091B3021C
:103010000E940B180895492F55274330510519F187
:1030200068F44130510509F444C04230510509F4B7
:1030300045C090E080E050E040E025C041325105BD
:1030400049F142325105A9F780E490E042EB52E0A9
:1030500061157105C1F08DE690E045E452E0613004
:10306000710589F0E6CF99278130910581F00097AD
:1030700029F00297F1F6ECECF1E002C0E4EFF1E0A8
:10308000849190E0AF01F901518340830895EEED02
:10309000F1E0F6CF89E090E04AE052E06115710579
:1030A00091F389E090E043E252E06130710559F319
:1030B000C0CF82E190E043E352E0E5CF8BE390E0C4
:1030C00048EF51E0E0CF80E189BD82E189BD09B4DC
:1030D00000FEFDCF8091D8008F7D8093D800809135
:1030E000E00082608093E0008091E00081FDFCCFF1
:1030F0000895AF92BF92CF92DF92FF920F931F93EA
:10310000CF93DF936C01EB018A010E94D819F82E4E
:10311000811123C00115110539F0F80180819181D9
:10312000C81BD90BC80ED91EB12CA12C2097A9F011
:103130008091E80085FD22C08091E8008E77809321
:10314000E80001151105A1F0F80180819181A80E18
:10315000B91EB182A08285E0F82E8F2DDF91CF912C
:103160001F910F91FF90DF90CF90BF90AF90089587
:103170000E94D8198823D1F2F82EEFCFF601819161
:103180006F018093F1002197FFEFAF1ABF0ACECFF6
:10319000FC018091B2029091B30286179707A0F0CC
:1031A0006115710529F49091E8009E779093E800ED
:1031B00090E06115710551F4911108C08091E8000B
:1031C00082FF34C080E00895BC01F2CF8091AB0251
:1031D0008823C1F18530C1F18091E80083FD30C0C2
:1031E0008091E80082FDEACF8091E80080FFE1CF86
:1031F0008091F3002091F200382F6115710519F0CC
:103200002830310558F091E02830310509F090E080
:103210002091E8002E772093E800CBCF8191809316
:10322000F100615071092F5F3F4FE7CF8091AB02F2
:10323000882341F0853041F08091E80083FFBECFC4
:1032400081E0089582E0089583E00895FC01809173
:10325000B2029091B30286179707A0F0611571052D
:1032600029F48091E8008E778093E80090E0611562
:10327000710551F4911108C08091E80082FF35C0BA
:1032800080E00895BC01F2CF8091AB028823C9F1A0
:103290008530C9F18091E80083FD31C08091E8005C
:1032A00082FDEACF8091E80080FFE1CF8091F300BA
:1032B0002091F200382F6115710519F02830310581
:1032C00058F091E02830310509F090E08091E80055
:1032D0008E778093E800CBCF84918093F100319674
:1032E000615071092F5F3F4FE6CF8091AB02882379
:1032F00041F0853041F08091E80083FFBDCF81E04F
:10330000089582E0089583E00895982F973028F07B
:103310008F708093E90081E008959093E900242F55
:10332000762F50E0981731F07091EC002091ED006D
:103330005091F00021FD02C09F5FE8CF3091EB007B
:103340003E7F3093EB003091ED003D7F3093ED00F8
:103350003091EB0031603093EB007093EC002093E0
:10336000ED005093F0002091EE0027FDE5CF80E0C6
:1033700008958091AC0287FF13C08091E80082FF1E
:1033800006C08091E8008B778093E80004C08091AC
:10339000AB028111F2CF08958091AB028823D9F35B
:1033A0008091E80080FFF8CF8091E8008E77ECCF25
:1033B0002091E4003091E50095E6A9012091EC0010
:1033C000822F817020FF06C08091E80080FF06C038
:1033D00080E008952091E80022FD1AC08091AB02A0
:1033E000882389F0853089F08091EB0085FD0FC03E
:1033F0002091E4003091E50042175307F9F2915013
:10340000E1F684E0089582E0089583E0089581E084
:1034100008950E94781A0E94801AE0EEF0E0808100
:1034200081608083E8EDF0E080818F77808319BC34
:10343000A7EDB0E08C918E7F8C9380818F7E80830E
:103440001092AA0208950F931F93CF93DF930E94C7
:10345000781A0E94801AC8EDD0E088818F7788831F
:1034600088818068888388818F7D888319BC1092C9
:10347000AB021092A7021092A9021092A80200EECD
:1034800010E0F80180818B7F808388818160888350
:1034900042E060E080E00E948519E1EEF0E080818A
:1034A0008E7F8083E2EEF0E0808181608083808186
:1034B00088608083F80180818E7F8083888180612D
:1034C0008883DF91CF911F910F910895E8EDF0E08F
:1034D00080818F7E8083E7EDF0E080818160808352
:1034E00084E082BF81E08093AA020E94231A08959B
:1034F000E8EDF0E080818E7F80831092E2000895F5
:103500001092DA001092E10008951F920F920FB608
:103510000F9211242F933F934F935F936F937F9359
:103520008F939F93AF93BF93EF93FF938091E100AD
:1035300082FF0BC08091E20082FF07C08091E10012
:103540008B7F8093E1000E94E41C8091DA0080FF71
:1035500019C08091D80080FF15C08091DA008E7F5D
:103560008093DA008091D90080FF96C080E189BD08
:1035700082E189BD09B400FEFDCF81E08093AB02FA
:103580000E94C5168091E10080FF19C08091E20081
:1035900080FF15C08091E2008E7F8093E2008091D1
:1035A000E20080618093E2008091D8008062809385
:1035B000D80019BC85E08093AB020E94D916809197
:1035C000E10084FF2BC08091E20084FF27C080E1EE
:1035D00089BD82E189BD89B5982F917080FFFBCFAD
:1035E0008091D8008F7D8093D8008091E1008F7EFC
:1035F0008093E1008091E2008F7E8093E2008091D1
:10360000E20081608093E2008091A702882309F4A0
:1036100049C084E08093AB020E94E2168091E100F1
:1036200083FF29C08091E20083FF25C08091E100E3
:10363000877F8093E10082E08093AB021092A70223
:103640008091E1008E7F8093E1008091E2008E7F87
:103650008093E2008091E20080618093E20042E08A
:1036600060E080E00E9485198091F000886080937E
:10367000F0000E94D616FF91EF91BF91AF919F91FC
:103680008F917F916F915F914F913F912F910F900B
:103690000FBE0F901F90189519BC1092AB020E949C
:1036A000D31670CF8091E30087FD93E09093AB0237
:1036B000B3CF1F920F920FB60F9211242F933F9307
:1036C0004F935F936F937F938F939F93AF93BF932A
:1036D000CF93DF93EF93FF93D091E900DF70809158
:1036E000EC00C82FC17080FDC0E81092E900809105
:1036F000F000877F8093F00078940E949D1B1092C9
:10370000E9008091F00088608093F000CD2BCF70AD
:10371000C093E900FF91EF91DF91CF91BF91AF91FD
:103720009F918F917F916F915F914F913F912F91D9
:103730000F900FBE0F901F901895AAE2B0E0E3EA39
:10374000FBE10C94291D8CEA92E02091F100FC0130
:103750002193CF01F2E0843B9F07B9F70E94021743
:103760008091E80083FF1EC18091AC029091AD0270
:103770009A3008F017C1E92FF0E0EC50F24E0C94AB
:10378000141D803899F0823809F00CC18091B00284
:103790008F70873008F006C18093E9008091EB00BC
:1037A00085FB882780F91092E90006C08091A80265
:1037B0009091A902911182609091E800977F909377
:1037C000E8008093F1001092F1008091E8008E777C
:1037D000E5C0882309F4D3C0823009F0E3C08091AA
:1037E000AE028111D6C08091B0028F702FEF280FEA
:1037F000263008F0D7C08093E9002091EB0020FF2D
:10380000C8C0933031F48091EB0080628093EB006C
:10381000C0C09091EB0090619093EB0021E030E00C
:1038200001C0220F8A95EAF72093EA001092EA007D
:103830008091EB008860EACF8111B4C01091AE0294
:103840001F778091E3008078812B8093E300809143
:10385000E800877F8093E8000E94B9198091E80012
:1038600080FFFCCF8091E30080688093E30082E0DA
:10387000111183E08093AB0295C08058823008F02C
:1038800091C08091AE029091AF028C3D23E09207EF
:10389000A1F583E08A838AE289834FB7F894DE0139
:1038A000139620E03EE051E2E32FF0E05093570002
:1038B000E49120FF03C0E295EF703F5FEF708E2F21
:1038C00090E0EA30C0F0C7968D939D932F5F24312E
:1038D00059F74FBF8091E800877F8093E8006AE244
:1038E00070E0CE0101960E94C8188091E8008B77A5
:1038F0008093E80057C0C096E7CF6091B002709106
:10390000B102AE014F5F5F4F0E940318BC01892BCB
:1039100009F448C09091E800977F9093E80089816E
:103920009A810E942619E1CF8038E1F58091E80064
:10393000877F8093E8008091A7028093F10045CFB4
:10394000811130C09091AE02923060F58091E80014
:10395000877F8093E8009093A7020E94B919809115
:10396000A702882311F084E005C08091E30087FD61
:10397000FACF81E08093AB020E94ED1613C08091D4
:10398000AE02813079F481E0933009F080E08093D9
:10399000A9021092E9008091E800877F8093E800F7
:1039A0000E94B9198091E80083FF0AC08091E80065
:1039B000877F8093E8008091EB0080628093EB002A
:1039C000AA96E3E00C94451D0895CF938091AB0235
:1039D0008823A1F0C091E900CF709091EC00892F6D
:1039E000817090FD80E8C82B1092E9008091E8007A
:1039F00083FD0E949D1BCF70C093E900CF91089575
:103A000097FB072E16F4009407D077FD09D00E948B
:103A1000511D07FC05D03EF4909581959F4F089568
:103A2000709561957F4F0895EE0FFF1F0590F491FB
:103A3000E02D09942F923F924F925F926F927F9266
:103A40008F929F92AF92BF92CF92DF92EF92FF92AE
:103A50000F931F93CF93DF93CDB7DEB7CA1BDB0B5A
:103A60000FB6F894DEBF0FBECDBF09942A883988FF
:103A700048885F846E847D848C849B84AA84B98406
:103A8000C884DF80EE80FD800C811B81AA81B98112
:103A9000CE0FD11D0FB6F894DEBF0FBECDBFED0126
:103AA0000895AA1BBB1B51E107C0AA1FBB1FA61785
:103AB000B70710F0A61BB70B881F991F5A95A9F7D7
:103AC00080959095BC01CD010895FB01DC0104C0F7
:103AD0008D910190801921F441505040C8F7881B06
:103AE000990B0895FB01DC0102C001900D92415039
:103AF0005040D8F70895F999FECF92BD81BDF89A4C
:103B0000992780B50895A8E1B0E042E050E00C9418
:103B1000AF1D262FF999FECF92BD81BDF89A01976E
:103B200000B4021639F01FBA20BD0FB6F894FA9A05
:103B3000F99A0FBE08950396272F0E948A1D0E94AE
:103B4000891D252F0E948A1D242F0C948A1D019601
:103B5000272F0E948A1D0C94891DDC01CB01FC01DA
:103B6000F999FECF06C0F2BDE1BDF89A319600B4D6
:103B70000D9241505040B8F70895F894FFCF7E045D
:103B80007E04CF04CF044205AD04AD04AD045E0550
:103B9000CF05DE05DE05C8113C12D0119A119E1129
:103BA000D411A211D811E411AE113512B211E811DD
:103BB000B611EC111412BA11F0111B12C011F6114A
:103BC000FE11A611DC11AA11E011C411FA110A129A
:103BD000241233129411CC114312EE13F413DD139B
:103BE000E813FA1300140614C11BE91BD21CE91BCD
:0C3BF000D21C1C1C3D1CD21C941CA01CF0
:103BFC0020027216A11675169A1601E200E900EA67
:103C0C0000B500B600B700CD008301CC008A01924C
:103C1C000194012102230224022502260227022AF2
:103C2C0002B300B4006F0070009F01CB019F02A093
:103C3C0002818283E200E900EA00B500B600B70019
:103C4C00CD008301CC008A01920194012102230250
:103C5C0024022502260227022A02B300B4006F00B8
:103C6C0070009F01CB019F02A002818283929496E7
:103C7C00973435366667F7F6F5F0F1F4C600FF01B8
:103C8C0000010000FFFF0000010001FF0091939074
:023C9C00950091
:00000001FF
