:100000000C94AB010C94E3010C94E3010C94E30118
:100010000C94E3010C94E3010C94E3010C94E301D0
:100020000C94E3010C94E3010C946F1B0C94431C9F
:100030000C948B160C94E3010C94E3010C94E301F3
:100040000C94E3010C94E3010C94E3010C94E301A0
:100050000C94E3010C9412170C94E3010C94E3014B
:100060000C94E3010C94E3010C94E3010C94E30180
:100070000C94E3010C94E3010C94E3010C94E30170
:100080000C94E3010C94E3010C94E3010C94E30160
:100090000C94E3010C94E3010C94E3010C94E30150
:1000A0000C94E3010C94E3010C94E3012900140087
:1000B0001A000800150017001C0018000C001200A0
:1000C00013002A002B2104001600070009000A0073
:1000D0000B000D000E000F0033002800E1001D0092
:1000E0001B00060019000500110010003600370043
:1000F00038003100E000E7000000000000000000D0
:100100002C4100000000E6000000215235001E00D6
:100110001F002000210022002300240025002600CB
:1001200027004C0039004A0052004D000100010038
:10013000010001002F0030003300010001005000D9
:1001400051004F0001000100010001002D002E00B0
:100150003400310001000100000000000000000038
:100160000100000000002252000001003A003B00A4
:100170003C003D003E003F00400041004200430083
:10018000440045000100AA00A90001000100027816
:100190002078010001000100010001000100AC0015
:1001A000AB00AD00010001000100010001000100F1
:1001B000010001000100010000000000000000003B
:1001C000010000000000010000000100000000002C
:1001D000000000000000000000000000000000001F
:1001E000000000000000000000000000000000000F
:1001F00000000000000000000000000000000000FF
:1002000000000000000000000000000000000000EE
:1002100000000100000000000000000000000000DD
:10022000000000000000000000000000100350006B
:10023000650067006100730075007300000014031F
:100240006D0065006C006F006E006200720065005A
:10025000640000000403090409023B00020100A03D
:10026000FA09040000010301010009211101000144
:10027000224400070581030800010904010001036D
:10028000000000092111010001226D000705820311
:100290002000011201000200000008EDFE00000134
:1002A000000102000105010980A101850319012A4D
:1002B000B700150126B700950175108100C0050C27
:1002C0000901A101850419012AA002150126A00235
:1002D000950175108100C005010906A1018506057B
:1002E0000719E029E7150025019508750181020528
:1002F00007190029EF1500250195F0750181020508
:10030000081901290595057501910295017503915B
:1003100001C005010906A101050719E029E715003B
:100320002501950875018102950175088101050770
:10033000190029FF150026FF0095067508810005A4
:1003400008190129051500250195057501910295EA
:100350000175039101C011241FBECFEFDAE0DEBFAB
:10036000CDBF04B603FE18C08091C1029091C202B5
:10037000A091C302B091C4028730904BA740B04B0C
:1003800059F41092C1021092C2021092C30210924C
:10039000C402E0E0F8E3099511E0A0E0B1E0E0EF8D
:1003A000FDE302C005900D92A63AB107D9F722E00D
:1003B000A6EAB1E001C01D92A13CB207E1F70E949C
:1003C00085110C94B71E0C9400001F93CF93DF93FC
:1003D000182FC62F0E940912D82F882389F01111D7
:1003E00007C089EAC11109C08AEA0E946A0408C0EC
:1003F000113031F4CC2349F08EE40E946A04DC2FE2
:100400008D2FDF91CF911F9108958BE4EECF843033
:10041000B8F46430A8F44C3098F450E09CE0699F44
:10042000400D511D1124FA0190E3899FE00DF11D4B
:100430001124EE0FFF1FE455FF4F8591949108950D
:1004400081E090E008950E940702089581E00895F8
:100450000E942602089581E008950E9426020895D0
:100460000E942D02089508950E9433020895A6E087
:10047000B0E0EDE3F2E00C94131E49835A839E83AF
:100480003091AD0189819A8131111AC03E813323A7
:1004900099F0222389F00E940C08182F682F898177
:1004A0009A810E94E80769817A81812F0E94340F26
:1004B0002696E3E00C942F1E0E94FA07182FF3CF24
:1004C0000E940C0869817A81F1CFFC01262F4081BE
:1004D000518162817381848195810E9437020895E0
:1004E000CF93DF93EC0161E00E946502BE010E94A0
:1004F0002802DF91CF910895CF93DF93EC0160E064
:100500000E946502BE010E943402DF91CF910895DE
:1005100081E008950E9488020895CF93C82F0E9419
:10052000BD068C2F0E948A022FEF84E39CE02150AD
:1005300080409040E1F700C00000CF91089581E035
:100540000E948D020E943617089580E00E948D025D
:100550000E945A1708950F931F93CF93DF938C0136
:1005600061E00E946502EC01B8010E943002811135
:1005700006C080E0DF91CF911F910F910895B801DF
:10058000CE010E9496148823A1F3B801CE010E94E7
:100590005613882371F3B801CE010E942C138823CF
:1005A00041F3F8018581882361F0C330FCE7DF0760
:1005B000E9F058F4C115ECE7DE07A9F0C130DC47DB
:1005C000B9F0C8010E942B02D5CFCB358CE7D807F4
:1005D000A9F0CC35ECE7DE0771F0CA35DC4789F7C6
:1005E0000E94530CEECF0E949F02C3CF0E945B0C6F
:1005F0000E94A502BECF0E94490CE3CF0E94570C77
:10060000E0CF0E9467160E94210308950E942503EF
:100610000E946C16089581E008950895CF93DF93AA
:10062000D82F0E940B03C82F882319F08D2F0E940A
:100630000D038C2FDF91CF91089508950E940E0332
:10064000089580E00E941E0308950E94DF140E9416
:100650001E030895CF930E94DF14C82F8091A80134
:100660008C1779F0C093A8010E94F7166093A90136
:100670007093AA018093AB019093AC018C2F0E94E0
:100680001E03CF910895ADE0B0E0E9E4F3E00C94EF
:10069000141E488759876A877B878C879D879111AD
:1006A0000E94590B1F8286E0FE013896DE011196EA
:1006B00001900D928A95E1F78D8181110DC02981FC
:1006C0003A814B815C816D817E818F810E94A30A7A
:1006D0002D96E2E00C94301ECE0101960E9470022D
:1006E0008111EDCFF5CFFC012481213021F48081EF
:1006F00091810E943E080895CF93C82F8823C9F0A6
:100700008238C9F40E94EC1481FD13C089E30E9471
:10071000FD150E94ED0B2FEF87EE93E021508040F6
:100720009040E1F700C0000089E30E9414160E9487
:10073000ED0BCF9108958338A1F40E94EC1480FD55
:10074000F8CF83E50E94FD150E94ED0B2FEF81EE9F
:1007500094E0215080409040E1F700C0000083E524
:10076000E4CF8438A1F40E94EC1482FDE2CF87E448
:100770000E94FD150E94ED0B2FEF81EE94E02150B9
:1007800080409040E1F700C0000087E4CECF8CEFBE
:100790008C0F813A70F48C2F0E947415882329F0F5
:1007A0008C2F0E9414160E94ED0B8C2F0E94FD15B9
:1007B000BECF80E28C0F883048F4C77081E001C062
:1007C000880FCA95EAF70E943C0BB1CFEBE5EC0F1E
:1007D000E33040F4F0E0EB5BFE4F808190E00E945C
:1007E0000815A7CFC85ACB3108F0A3CFEC2FF0E003
:1007F000EE0FFF1FE15FFE4F808191810E942D155A
:1008000098CF882309F44DC0823879F40E94EC1403
:1008100081FF47C089E30E94FD150E94ED0B89E32B
:100820000E9414160E94ED0B0895833859F40E941B
:10083000EC1480FF36C083E50E94FD150E94ED0B8D
:1008400083E5EECF843859F40E94EC1482FF29C06E
:1008500087E40E94FD150E94ED0B87E4E1CF9CEF39
:10086000980F913AE8F290E2980F983050F4877020
:1008700091E001C0990F8A95EAF7892F0E94420BF7
:10088000D1CF9BE5980F933028F490E080E00E9450
:1008900008150895885A8B3120F490E080E00E947A
:1008A0002D1508951F93CF93DF93182FEB010E940E
:1008B0007C03209739F4812F0E940104DF91CF91AE
:1008C0001F9108958FE99FE00197F1F700C00000A4
:1008D0002197EFCF70E060E0893311F460E570E0BC
:1008E0000E9452040895882321F00E943C0B0E942C
:1008F000ED0B0895882321F00E94420B0E94ED0B1E
:100900000895B0E0A0E0E7E8F4E00C940D1E6C015F
:10091000D62FC72FFC011581068102950F700E940A
:10092000320BE82E8823F9F0E12E1123E1F08C2F11
:10093000807F803461F080E28D0F883008F18C2F49
:10094000807E803221F4D230D8F00023C9F080912B
:100950009F0282FF15C082E00E941D0C0E94320B94
:1009600091E0E82EE926BC2EB2949FE0B922FBE08C
:10097000FB15B8F1EB2DF0E0E754F14E0C94FE1DA1
:10098000E12CF1CF0C2F0F70C07F11F00295007F8A
:10099000112399F0002359F080E28D0F883010F078
:1009A000D11107C0802F0E943C0B0E94ED0B8D2FB0
:1009B0005AC0802F0E944C0BF8CF8D2F0E9401044B
:1009C000002379F080E28D0F883010F0D11104C03F
:1009D000802F0E94420B03C0802F0E94520B0E9466
:1009E000ED0BEB2DE850FF0B349720F40E94DF1441
:1009F0000E941E03EE2089F00E942E0B80FD0DC088
:100A0000F60115820E94280B0E944607C6010E942B
:100A100088060E94280B0E945607CDB7DEB7E9E092
:100A20000C94291E2C2F2F70F22EC07FC03219F08B
:100A3000F29480EFF822DD2341F0D130D1F111237F
:100A400009F444C00023F1F0B2CF80919F0282FDEF
:100A500015C0112359F0FF2029F08F2D0E943C0B67
:100A60000E94ED0B80E00E947C03BBCF80E00E94DF
:100A70000104FF2009F4B5CF8F2DABCF112369F00E
:100A8000011104C08F2D0E947304ABCF013009F017
:100A9000A8CF8F2D0E94700BA4CF0111A2CF8F2D54
:100AA0000E947A048F2D0E947C0B8F2D0E94600B78
:100AB00098CF112321F0063008F093CFE3CF053013
:100AC00008F08FCF8F2D0E947A048BCF0023D1F3B3
:100AD000D93349F43FEF87EE93E0315080409040A6
:100AE000E1F700C000008D2F0E9401047ACF8C2F07
:100AF00086958695837069F0813009F072CF8D2FCD
:100B00009C2F9370111102C080E090E00E942D157F
:100B100068CF8D2F9C2F9370111102C080E090E060
:100B20000E9408155ECF8C2F8370A1F5111159CF4B
:100B30004D2F429546954770440F440F2D2F2F702F
:100B400030E0042E02C0220F331F0A94E2F790E037
:100B500080E0D4FF09C08FE090E002C0880F991FA9
:100B60004A95E2F780959095C695C695C370822BFD
:100B7000932BC23049F058F4C13019F00E94160787
:100B800030CF0E940D072DCF0E941F072ACF0E9451
:100B90000A0727CF8695112311F08C2F81708823A7
:100BA00009F41FCF4D2F429546954770440F440FCF
:100BB0002D2F2F7030E0042E02C0220F331F0A9415
:100BC000E2F790E080E0D4FF09C08FE090E002C03F
:100BD000880F991F4A95E2F780959095C695C6951E
:100BE000C370822B932BC23049F058F4C13019F0F6
:100BF0000E948107F6CE0E947807F3CE0E948A07F2
:100C0000F0CE0E942E07EDCECF70112329F08C2F4D
:100C10000E9446078D2F37CF8D2F0E947A048C2F8C
:100C20000E945607DECED23F41F160F4D03FB9F0CA
:100C3000D13F81F0112309F443C00111B8CE8C2FAC
:100C40008F711FC0D33F01F1D43FA1F780919F0264
:100C500082FD24C08C2F8F71112311F312C0112338
:100C600041F0053008F0BDCE8C2F8F710E946807CF
:100C7000B8CE063008F0B5CEF7CF8C2F8F7111119A
:100C8000CFCF0E944607ADCE112329F08C2F8F7154
:100C90000E943A07A6CE0E943507A3CE112331F059
:100CA00063E08C2F8F710E94FF0B9BCE81E00E942E
:100CB0001D0C023008F495CE82E00E941D0C91CEEE
:100CC000002359F0D93309F00ECFEFEFF7EE23E010
:100CD000E150F0402040E1F704CF8C2F8F71A0CF7E
:100CE0000F931F93CF93DF93EC01688179818D81FE
:100CF0000E9449088C010E9493070E940907B801CD
:100D0000CE010E948104DF91CF911F910F91089530
:100D1000CF93DF93EC018C81882399F0CE010E9460
:100D2000AB02811111C00E94320B882351F08D81DA
:100D3000882339F080919F0282FF03C082E00E94E5
:100D40001D0CDF91CF910895CE010E947006CE0157
:100D50000E947C02F6CF90E080E00E94081590E0AF
:100D600080E00E942D150E94590B0E94ED0B089502
:100D70000E942B160E94AB0608950E94490B0E9408
:100D8000B806089592959F70963091F058F4925F4E
:100D90009F70923058F4803F19F030F4883E30F460
:100DA00081E008959A5FF4CF843FD1F380E0089505
:100DB000883EB0F3813FD1F7F3CFFC012481222399
:100DC00039F0808191810E943E080E94C2060895F8
:100DD00080E00895A6E0B0E0E0EFF6E00C94141E89
:100DE0002696E2E00C94301EA7E0B0E0EAEFF6E0D1
:100DF0000C94141E2796E2E00C94301E08950E9475
:100E0000FE0608950E94FF069093C9018093C801D1
:100E1000089508950E94020708952091C801309115
:100E2000C901822B932B0E94020708952091C801CB
:100E30003091C901822393230E94020708952091D3
:100E4000C8013091C901822793270E9402070895A3
:100E50000E94FE0608950E94280708950E942B070D
:100E60009093C7018093C601089590E080E00E94AE
:100E70002E07089521E030E0A90102C0440F551F5C
:100E80008A95E2F7CA010E942E07089521E030E01A
:100E900002C0220F331F8A95E2F78091C60190911C
:100EA000C701822B932B0E942E07089521E030E08A
:100EB00002C0220F331F8A95E2F72095309580916A
:100EC000C6019091C701822393230E942E070895A3
:100ED00021E030E002C0220F331F8A95E2F78091B3
:100EE000C6019091C701822793270E942E0708957B
:100EF0002091C6013091C701822B932B0E942E07AF
:100F000008952091C6013091C701822393230E9446
:100F10002E0708952091C6013091C701822793279B
:100F20000E942E0708950895262F277091E001C092
:100F3000990F2A95EAF723E0769567952A95E1F7C8
:100F4000660F771F660F771FFA01E60FF71F50E055
:100F500040E0682F70E08191DF0111979B01042E22
:100F600002C0369527950A94E2F72170219528272B
:100F7000292328272C934F5F5F4F4430510559F7A1
:100F80000895A82FA77023E0969587952A95E1F7F5
:100F9000880F991F880F991FFB01E80FF91F50E078
:100FA00040E080E0219130E00A2E02C0369527957E
:100FB0000A94E2F721703327042E01C0220F0A940D
:100FC000EAF7822B4F5F5F4F4430510559F7089580
:100FD000262F943070F48C3060F4682F70E08CE031
:100FE000989F600D711D11244EEA51E0822F0E94DE
:100FF00094070895292F943068F48C3058F490E0C9
:101000006EEA71E03CE0239F800D911D11240E9447
:10101000C107089580E00895B0E0A0E0E2E1F8E0C3
:101020000C940D1E7C010091C6011091C7018091A6
:10103000C8019091C901082B192BCFE0D0E0CC2436
:10104000C394D12CBC2EC6010C2E02C0880F991F50
:101050000A94E2F780239123892B49F4219790F792
:10106000B12C8B2DCDB7DEB7E9E00C94291EB7016A
:101070008C2F0E94400F019789F3F3CFCF93DF931A
:10108000EC010E940C08BE010E94400FDF91CF913D
:1010900008951F93CF93DF93EB019091AD019923B6
:1010A00039F0CB010E943E08DF91CF911F91089546
:1010B000882369F0CB010E940C08182F682FCE01FD
:1010C0000E94E807BE01812F0E94400FEDCFCB01A7
:1010D0000E94FA07182FF6CF1F93CF93DF93C0918A
:1010E000CA0117E08091CB018C1304C0DF91CF912E
:1010F0001F910895D0E01C9FF0011D9FF00D112459
:10110000E453FE4F20813181428153816481758196
:1011100086810E94F4062196C770E4CF20910402D4
:101120003091050240910602509107026091080239
:101130007091090280910A020E94F4060895CF93EB
:10114000DF9380910A02807F09F04DC080910902EF
:10115000882309F448C0E091CA015091CB01C091A5
:101160000502D0910402609106027091070247E0E7
:101170005E17C9F18E2F90E0E49FF0011124E45333
:10118000FE4F2481222391F1489FF001499FF00DE9
:101190001124DF01A453BE4F11962C9111972C13EB
:1011A00025C02C912D1322C015962C911597211135
:1011B0001DC012962D913C91261B370B283C310502
:1011C000A8F480910A028F70806180930A02EE5227
:1011D000FE4F80818F708061808384E092E00E9466
:1011E00088060E946C08DF91CF910895FC0131962A
:1011F000E770BECF482F2091CA019091CB0157E0F4
:10120000291302C080E0089530E0529FF001539FFF
:10121000F00D1124E453FE4F8181681306C08081D4
:10122000481303C085818111EECF2F5F3F4F277098
:10123000E7CFA4E1B0E0EFE1F9E00C940A1E8C01E5
:1012400086E0F801DE011F9601900D928A95E1F784
:10125000F8018481E58094E0A92E92E0B92E909166
:10126000080291111FC08823D1F0EE20A9F0C80117
:101270000E94DD06F82E882379F087E0F801D50179
:1012800001900D928A95E1F7C5010E9473030E94B7
:101290009F080E948E085FC0C8010E948806FF2434
:1012A000F39459C0C080D18082809380F09009026D
:1012B0002091060230910702A401421B530BFF202C
:1012C00009F4F9C0483C510508F0A7C0882309F487
:1012D00042C09091050280910A02282F207F09F0D8
:1012E0005CC09D1116C090910402C91212C0E11099
:1012F0004EC08F70806180930A020E948E0884E045
:1013000092E00E94880680910A02F8018683F12CFF
:1013100022C0E1103CC06D2D8C2D0E94FA086D2D6D
:101320008C2D0E94FA08E82E8111F1CFCF86D88A41
:101330008F8598890E943E08292F22952F7024308E
:1013400078F49F702230A8F09923B9F0F8019681C3
:10135000907F99F4FE2C8F2D6496ECE00C94261E61
:101360002A5F2F70223068F0C8010E948806EF2C97
:10137000F1CF992311F0882369F3805E883050F310
:10138000F3CF803F38F3815F833070F7E3CF8091F4
:101390000A02816080930A02BACF9D1113C0909116
:1013A0000402C9120FC0E1100DC08683C8010E945B
:1013B000880687E0F801A4E0B2E001900D928A95DA
:1013C000E1F767CFC8010E94DD06882309F464CFE6
:1013D000EE2009F461CF80910A02803288F02091DA
:1013E000040230910502398728879B868A8690916E
:1013F00008029C871D868E87CE0108960E9488066B
:1014000087E0F801A4E0B2E001900D928A95E1F73F
:101410000E949F080E948E0842CF90910A02292FB5
:10142000207FA1F4682D9A8A898AA6017A899E2D47
:101430000E94EA0684E092E00E94880687E0F501B7
:1014400011928A95E9F70E948E0861CF882309F4EA
:1014500082CF809105028D1110C080910402C812C4
:101460000CC0E1100AC09683C8010E94880687E07C
:10147000F50111928A95E9F76ECFC8010E94DD0649
:10148000882309F409CFEE2009F406CF80910A02DF
:10149000803208F4B5CF20910402309105023A83DE
:1014A00029839C828B82909108029D831E828F8368
:1014B000CE010196A3CF483C5105B8F5882309F425
:1014C000EECEFE2CEE2009F4E7CE809105028D11C0
:1014D0001EC080910402C8121AC080910A0280FDC9
:1014E0000DC0982F907F51F08683903F09F45ECF16
:1014F000982F907F905F8F70892B57CF87E0F801EE
:10150000A4E0B2E001900D928A95E1F724CFC801E2
:101510000E94DD06811174CF80910A028160809360
:101520000A02C8010E94880616CF682D9A8A898A05
:10153000A6017A899E2D0E94EA0687E0F5011192A4
:101540008A95E9F7A6CEAEE0B0E0E9EAFAE00C94BD
:10155000131E288739874A875B876C877D878E872C
:10156000CE0108960E9419098823B1F06C85662384
:1015700041F0288539854A855B857D858E850E9469
:10158000F40617E08091CA019091CB0189133DC008
:101590002E96E3E00C942F1E87E0FE013896DE01C4
:1015A000119601900D928A95E1F78C85882349F375
:1015B0002091CB0130E0C9010196877099274091B5
:1015C000CA014817190699F097E0929FD001939F9E
:1015D000B00D1124A453BE4FFE01319601900D921F
:1015E0009A95E1F78093CB010E946C08CACF0E94C4
:1015F000BD061092CB011092CA0187E0E4E0F2E050
:10160000DF011D928A95E9F7BCCF819FC0011124AB
:1016100084539E4F0E941909882309F4B9CFE091A1
:10162000CA011E9FF0011124E453FE4F2081318135
:10163000428153816481758186810E94F406809184
:10164000CA0190E00196877099278093CA019ACFCA
:101650008091330286958695869508958091330210
:101660008770089590913302977081E009F480E0CB
:10167000089580915F02089590915F02892B809375
:101680005F020895809590915F02982390935F0286
:10169000089510925F02089590915E02892B8093C5
:1016A0005E020895809590915E02982390935E0269
:1016B000089510925E02089508950E945C0B0895AB
:1016C00090913402292F282331F08095892380932B
:1016D00034020E945D0B089508950E946C0B0895DA
:1016E00090913502292F2823281729F0982B9093C1
:1016F00035020E946D0B089590913502292F282301
:1017000031F080958923809335020E946D0B0895F6
:1017100080913502882329F01092350280E00E94E2
:101720006D0B0895CF93C0915F0280915E02C82B2C
:1017300080913502882331F0C82B0E945215811107
:101740000E94880B8C2FCF910895CF93DF93C09187
:101750000201D09103010E94920B8883C091020183
:10176000D091030148E050E06BE272E0CE010E94AC
:101770004F1E892B59F088E0FE01ABE2B2E00190E8
:101780000D928A95E1F7CE010E94EF14DF91CF917F
:101790000895CF93DF93C0910001D09101010E9481
:1017A000920B8983C0910001D091010140E250E089
:1017B0006BE072E0CE010E944F1E892B59F080E24F
:1017C000FE01ABE0B2E001900D928A95E1F7CE0107
:1017D0000E94FA14DF91CF91089580910E01882321
:1017E00039F080919E0287FF03C00E94C90B0895C3
:1017F0000E94A50B089508950E94FB0B08959091F7
:101800009F0292FF11C098E0899F90011124622BE2
:10181000609333020E944607809133028695869535
:1018200086950E94FC0B08950E9446070895109229
:10183000330280E00E94FC0B089590913302809562
:10184000892380933302282F277069F4891759F070
:1018500090919F0292FF07C08695869586950E947B
:1018600056070E94170C089590919F0292FB222721
:1018700020F9281769F080FB92F990939F028091DC
:101880009E0290919F020E947C0C82E00E941D0C9F
:10189000089580919F0282FB882780F991E0892733
:1018A0000E94340C089581E00E94340C089580E079
:1018B0000E94340C08956FEF7FEF90E080E00E946B
:1018C000A11E089590E080E00E946D1E21E0853EFB
:1018D0009E4F09F020E0822F089582E090E00E9460
:1018E000651E089583E090E00E94651E089584E0DF
:1018F00090E00E946D1E0895BC0184E090E00E947B
:10190000A11E0895AB01BC018FE090E00E94951EDE
:101910000895AB01BC0183E190E00E94951E0895FB
:1019200060E070E0CB010E94890C089560E070E0F7
:10193000CB010E94820C0E94900C0895A8E0B0E0B8
:10194000E4EAFCE00C94141E65EE7EEF90E080E08B
:101950000E94A11E60E082E090E00E94831E81E070
:1019600090E09093C9018093C80161E083E090E02A
:101970000E94831E60E074E184E090E00E94A11E5A
:1019800060E086E090E00E94831E60E087E090E0E7
:101990000E94831E40E050E0BA0188E090E00E947F
:1019A000951E60E083E290E00E94831E60E08CE080
:1019B00090E00E94831E60E08DE090E00E94831E14
:1019C00019821A821B821C821D821E821F82188627
:1019D00048E050E067E170E0CE0101960E94731E7E
:1019E00040E050E0BA018FE190E00E94951E0E9415
:1019F000960C2896E2E00C94301E0E949E0C0895EE
:101A0000682F8EE090E00E94831E0895A6E0B0E06B
:101A1000ECE0FDE00C94121E0E94EB168C0180910C
:101A20006002909161028017910781F019821A82F9
:101A30000E94EB16682F49815A81792F80E090E04F
:101A40000E94430310936102009360022696E4E033
:101A50000C942E1E0E94F71660937202709373020C
:101A6000809374029093750260936E0270936F027C
:101A7000809370029093710208950E94F71660930C
:101A80007202709373028093740290937502609354
:101A90006A0270936B0280936C0290936D020895BA
:101AA000089508950E94500D089508950E94550DBF
:101AB000089586E390E10E949A110E94510D0E94C0
:101AC000520D089581E008950E94620D08950E94CC
:101AD000620D0895089508950E946A0D0E946B0D8D
:101AE00008950E94620C811102C00E94FD0C0E94A8
:101AF0006D0C809376020E94770C90939F028093E6
:101B00009E020E9429130E94720C90E00E940A0714
:101B10008091C6019091C7010E942B0708950E94F1
:101B2000E2160E94A2110E94F5100E94710D0E94FF
:101B30001D030E94560D0895A6E0B0E0E2EAFDE024
:101B40000C94081E0E94640D81110DC00E94060DA8
:101B50000E940B1281110E943D0D0E942A032696BD
:101B6000EEE00C94241E0E940B1122E6822E22E04D
:101B7000922E640110E0F601E190F1906F01812F47
:101B80000E9440101F5F143009F44BC0E816F9069C
:101B900091F38091760281FD0E9449100E94670DA9
:101BA000782E10E066246394812F0E9440107C01FF
:101BB000F401A190B1904F018A159B0561F100E0FD
:101BC000CC24C394D12CAE24BF24C5018C219D21EB
:101BD000892BC1F07720B1F009831A830E94EB169C
:101BE0009C838B836D8221E0C7018C219D21892BF1
:101BF00009F420E049815A816B817C818D81922F8B
:101C00000E9443030F5FCC0CDD1C0C30F1F6F40195
:101C10003297F182E0821F5F143031F60E942A0D64
:101C200097CFE816F90609F0B4CF90CF1F93CF9362
:101C3000DF930E94450FEC01C11580E5D807F0F550
:101C4000C11580E4D80708F09CC0C03ED10520F53E
:101C5000CD3CD10508F082C0C83AD10578F4C53A28
:101C6000D10508F073C0C130D10519F1209709F1F1
:101C7000C430D105F0F4D0E0C0E01BC0C33CD105B6
:101C8000D0F7C85AD0E0CC0FDD1FC85BDE4F0990FB
:101C9000D881C02DD4640DC0C11580E2D80708F0EA
:101CA000D1C0C11581E0D80708F05AC0C83ED1059F
:101CB00010F7CE01DF91CF911F910895C03682E5D4
:101CC000D80718F5C03482E5D80708F06BC0C032D9
:101CD00082E5D80708F05FC0C11582E5D80708F48F
:101CE00097C02C2F2695269580E2289F90011124DD
:101CF0008C2F8370C1E0D0E002C0CC0FDD1F8A952D
:101D0000E2F7C22BD32BDD68D4CFC03A82E5D807E7
:101D100060F4C03882E5D80708F459C0CF71D0E02C
:101D2000DC2FCC27C46FD06AC4CFC03C82E5D80773
:101D300008F462C0C03E82E5D80708F09CCFDC2FD3
:101D4000CC27CC27DF71C06FD06AB3CFC55AD0E0A3
:101D5000C258DE4FC881D0E0D064ABCFD065A9CFE8
:101D60008D2F0E94E70F182FCE0199270E94450F53
:101D7000C12FD0E0DC2FCC27CC27DF71C82BD92B8B
:101D800098CFCE0199270E94450FCC27DF70C82B32
:101D9000D92BD06A8ECFCF71D0E0DC2FCC27C16F8A
:101DA000D06A87CF2C2F26952695277080E2289F12
:101DB000900111248C2F8370C1E0D0E002C0CC0FC1
:101DC000DD1F8A95E2F7C22BD32BDC6872CF2C2F54
:101DD00026952695277080E2289F900111248C2F4C
:101DE0008370C1E0D0E002C0CC0FDD1F8A95E2F71E
:101DF000C22BD32BDA685DCF8C2F8F710E94E70F37
:101E0000C82FD0E0DC2FCC27CC27DF71D06251CF98
:101E10008C2F8F710E94E70F55E0D695C7955A9584
:101E2000E1F7CF70D0E0DC2FCC27282F30E084FF03
:101E300005C044E0220F331F4A95E1F7C22BD32B94
:101E4000D06937CF8D2F8F710E94E70F182FCE01E9
:101E500099270E94450FC12FD0E0DC2FCC27CC273B
:101E6000DF71C82BD92BD2CF462F743030F46C30B1
:101E700020F4672F0E942302089590E080E00895E7
:101E80000E94340F0E94160E089582389105B9F110
:101E9000B0F48133910509F47DC048F4893291058D
:101EA00009F46DC08A32910509F47BC00895853329
:101EB000910509F45FC08933910509F10895833EC6
:101EC0009105D9F138F4803E910529F1823E9105C2
:101ED00079F10895863E9105D9F1873E910509F47F
:101EE0003EC0843E910541F520919F0221FF24C010
:101EF00080919E0284FD19C087EE90E008952091A4
:101F00009E02237009F05AC020919F0223FF14C043
:101F100089E290E0089520919E0220FD38C0309122
:101F20009F0230FF09C024FF43C090E080E0089585
:101F300020919E0222FDF7CF089520919E0222FD5E
:101F40003AC030919F0230FD39C024FFF5CFEDCF6C
:101F500020919E0223FFF0CF24FDE7CFCDCF20912B
:101F60009E0223FD2EC030919F0231FFEECF84EE02
:101F700090E0089520919E0225FFDECFC9CF2091E9
:101F80009E0225FD21C020919F0223FFD5CF89E32A
:101F900090E0D2CF20919E0226FFCECF8AE290E041
:101FA000089520919E0226FFC7CF81E390E0089517
:101FB00083EE90E0089582EE90E0089580EE90E048
:101FC000089586EE90E0089585E390E0089590915D
:101FD0009E0292FF10C041E0282F2471243009F0A6
:101FE00040E031E0282F2871283009F030E0431715
:101FF00011F02CE0822793FF10C041E0282F2471BC
:10200000243109F040E031E0282F2871283109F00F
:1020100030E0431711F02CE0822730919F0230FF0F
:1020200010C051E0282F2171213009F050E041E02B
:10203000282F2871283009F040E0541711F029E0CA
:10204000822731FF10C041E0282F2171213109F092
:1020500040E031E0282F2871283109F030E04317A3
:1020600011F029E0822794FD877E089580E008958D
:1020700008950E943810089508950E943C10089514
:10208000E82FF0E0EE0FFF1FE855FD4F80819181B2
:102090000895089580EA8A95F1F7089500C008959B
:1020A0000E944A100895F894E82FE295EF70F0E04E
:1020B00031A1282F2F7081E090E001C0880F2A9570
:1020C000EAF7982F9095932391A392A1892B82A34D
:1020D00078940895CF93DF9380EF0E94531081EF9F
:1020E0000E94531084EF0E94531086EC0E945310FC
:1020F000C1E8D1E089918F3F11F00E94531081E037
:10210000CD38D807B9F7DF91CF910895AF92BF923C
:10211000DF92EF92FF920F931F93CF93DF938C0187
:10212000D62EC62FD0E0CE0183579E4F7C01FC01F6
:1021300020812F3F09F44CC0F894E22FE295EF7014
:10214000F0E031A12F7081E090E001C0880F2A9566
:10215000EAF7932F982B91A392A18095892382A3CC
:1021600078940E944E10E1E8F1E041E050E0B12C9B
:10217000A12C21912F3FB1F1A22FA295AF70B0E019
:1021800090968C9190E02F7002C0959587952A9536
:10219000E2F780FD27C0CA01A82AB92A440F551FBB
:1021A00081E0ED38F80729F7F70180818F3F11F0C2
:1021B0000E94531061E0A114B10409F460E08D2D78
:1021C0000E945010CC0FDD1FC00FD11FB982A88212
:1021D000DF91CF911F910F91FF90EF90DF90BF9013
:1021E000AF90089590E080E0D7CF0E946A1088E019
:1021F000E8EAF2E0DF01982F1D929A95E9F7E0EA0C
:10220000F2E0DF011D928A95E9F784E00E94461111
:102210000E9439100895A8E0B0E0E1E1F1E10C94EA
:10222000111E8E010F5F1F4F88E0F80111928A95F1
:10223000E9F7F12C6F2DC8010E948610F394F4E0A9
:10224000FF12F8CF48E050E0B80180EA92E00E9427
:102250004F1E21E0009709F420E0892B41F088E02F
:10226000F801A0EAB2E001900D928A95E1F744E00E
:1022700068EA72E080EA92E00E944711182F0E94FB
:102280003D10812F2896E5E00C942D1E0895B0E0B6
:10229000A0E0EDE4F1E10C940E1E6C017B01042F33
:1022A000C22F222379F081E0809379020E94EB16FD
:1022B000909378028093770280E0CDB7DEB7E8E0B4
:1022C0000C942A1ED0917902DD23B1F3809177021C
:1022D000909178020E940317059770F310E0000FA9
:1022E000111FA801B601C7010E944F1E892B31F0B2
:1022F000A801B601C7010E945C1ECD2F1092790281
:102300008C2FDBCF0E949C0D08950E9484160E94A2
:10231000A6180E94590D0E94C0180E948F0D0E949D
:10232000CD180E94D2180E9482110E94EC180E94BF
:102330006C0DF7CF9093A7018093A60108950E949A
:10234000620D0895EBE7F2E088E0DF011D928A95C7
:10235000E9F70E94B2120895FC01228130E02F5F5C
:102360003F4F23703327938181E09217130609F0C2
:1023700080E008950F931F93CF93DF93EC01162F06
:10238000042F0E94AC11811117C08A81FE01E80F51
:10239000F11D1F7764816078612B00FB67F964830E
:1023A0008F5F83708A8388818F5F888381E0DF916C
:1023B000CF911F910F91089580E0F9CFFC01A38187
:1023C00082818A17B1F0AE0FBF2FB11D14968C9188
:1023D00087FB992790F98F77DB018C93DA019C9327
:1023E00083818F5F8370838381818F5F818381E0AD
:1023F000089580E00895462F682F8BE792E00E94B1
:10240000BA110895AB01BC018BE792E00E94DE1186
:10241000089581E00895A2E0B0E0E1E1F2E10C94DA
:10242000121E80917A02882351F010927A028091D4
:102430007D0280937E0280917B0280937C020E94C9
:10244000F1120E949F11182F882389F010E005C017
:1024500069818A810E94E501102FBE016F5F7F4F65
:10246000CE0102960E940212082F8111F1CF812F16
:102470002296E4E00C942E1E8FE891E00197F1F78C
:1024800000C00000089590E06623E9F08F559E4F4C
:10249000FC0180818F3FB1F0E82FE295EF70F0E012
:1024A00041A18F7021E030E0B90102C0660F771FB3
:1024B0008A95E2F7CB01962F9095942391A392A150
:1024C000892B82A308958D559E4FE2CF90E066231D
:1024D000A1F08F559E4FFC0120812F3F89F0E22F04
:1024E000E295EF70F0E080A190E02F7002C095952A
:1024F00087952A95E2F7817008958D559E4FEBCF11
:1025000080E008950895CF93DF93C0E08091830227
:10251000C81760F00E943C12C0E080918302C81787
:1025200078F00E948212DF91CF91089560E08C2FA5
:102530000E94431261E08C2F0E944312CF5FE6CFCE
:1025400060E08C2F0E946612D82F61E08C2F0E94D1
:102550006612EC2FF0E0EA57FD4F880F8D2B808339
:10256000CF5FDBCF82E0809383020E9483120895C5
:102570001F93CF93DF93182FE42FEE0F6E2BC82FEE
:10258000D0E0DE01AA57BD4FEC918E2F8370681703
:1025900021F1EE0FEE0FE62BEC93EF70F0E0EF562B
:1025A000FE4FCC57DD4F80819881890F888384301E
:1025B00024F060E0812F0E94FB1188818D3F24F47C
:1025C00061E0812F0E94FB118881082E000C990B7D
:1025D00064E070E00E94EA1D8883DF91CF911F9133
:1025E0000895CF93DF93C0E080918302C81718F05D
:1025F000DF91CF91089561E08C2F0E946612D82F51
:1026000060E08C2F0E9466124D2F682F8C2F0E9445
:10261000B812CF5FE9CF0E945B0C089580E00E9462
:102620004010817008950E940B112FEF86E791E012
:10263000215080409040E1F700C000000E940B1143
:102640000E940E13882321F00E940B130E9436175C
:1026500008950E9413130895CF93DF93EB01863101
:102660009C4711F50E94390B9D81992399F08A7A34
:1026700091E009F490E090938802811109C089E209
:102680000E94FD150E94ED0B80E0DF91CF9108952F
:1026900085E3F6CF80918802811104C089E20E940F
:1026A0001416F0CF85E3FBCF81E0EFCFCF93DF931C
:1026B000EC01FB018581882309F4D2C09E013057CB
:1026C0002332310508F0B2C00E94770C90939F022C
:1026D00080939E02FE01E150F047E232F10520F4C2
:1026E000EB53F14E0C94FE1D80919E02816080930D
:1026F0009E0293C080919F02886080939F028DC04C
:1027000080919E028260F3CF80919E028460EFCF21
:1027100080919E028860EBCF80919F028160EDCF17
:1027200080919F028260E9CF80919E028061DFCF1D
:1027300080919E028062DBCF80919E028064D7CF21
:102740000E94BD0680919E028068D1CF80919E023A
:102750008C60CDCF80919F028360CFCF80919E020D
:102760008E7FC5CF80919F02877FC7CF80919E02C9
:102770008D7FBDCF80919E028B7FB9CF80919E02CD
:10278000877FB5CF80919F028E7FB7CF80919F02C8
:102790008D7FB3CF80919E028F7EA9CF80919E02C4
:1027A0008F7DA5CF80919E028F7BA1CF0E94BD0619
:1027B00080919E028F779BCF80919E02837F97CFDF
:1027C00080919F028C7F99CF80919E0282FB9927F6
:1027D00090F921E0922790FB82F990FB83F987CF53
:1027E00080919F02982F909591708E7F892B90FBFE
:1027F00081F983CF90919E02892F8F7B96FF806411
:1028000076CF0E94BD0690919E02892F97FB87F993
:1028100080586DCF81E00E94000D80919E029091C2
:102820009F020E947C0C0E94BD0680E0DF91CF9148
:10283000089580E0F0CF90919E02892F8F7E94FFC3
:10284000806155CF90919E02892F8E7F90FF81608D
:102850004ECF90919F02892F877F93FF88604DCF45
:1028600081E0E4CF0F931F93CF93DF93C42FD22F38
:10287000FC0185818823C9F040938B020E94EB16EE
:1028800090938A028093890280E28C0F883040F412
:10289000C77081E001C0880FCA95EAF70E947304EF
:1028A000DF91CF911F910F91089510918B02141316
:1028B00032C08091890290918A020E940317883C5D
:1028C000910548F5C0E2CD0F1D17B9F080E2810FE8
:1028D000883040F4177081E001C0880F1A95EAF73C
:1028E0000E947A04C83048F481E09D2F977001C09F
:1028F000880F9A95EAF70E947304802F0E946A0459
:10290000C83070F6D77081E001C0880FDA95EAF719
:102910000E947A04C5CF80E28C0F883008F6C77019
:1029200081E001C0880FCA95EAF7F2CF0F93DB016F
:1029300088519C4787309105A0F5FC01E951F14E83
:102940000C94FE1D06E221EE41EE6AE17CE7CD012A
:102950000E94321480E00F91089507E225EE45EEC3
:102960006BE17CE7F4CF06E221EE40EE68E17CE724
:10297000EECF07E225EE44EE69E17CE7E8CF06E220
:1029800021EE42EE6CE17CE7E2CF07E225EE46EE77
:102990006DE17CE7DCCF08E221E045EE6EE17CE70B
:1029A000D6CF15968C91882319F010928B02D3CF35
:1029B00081E0D1CF90939102809390020895E091AD
:1029C0009002F0919102309729F00190F081E02D72
:1029D0000995089580E008950E94DF140895E0911C
:1029E0009002F0919102309721F00280F381E02D66
:1029F00009950895E0919002F0919102309739F095
:102A000026E0DC012C930480F581E02D09950895E2
:102A1000A3E0B0E0EEE0F5E10C94141E20918E02EC
:102A200030918F0228173907A1F090938F0280937D
:102A30008E02E0919002F0919102309751F023E0E4
:102A400029839B838A830084F185E02DCE01019642
:102A500009952396E2E00C94301EA3E0B0E0E3E396
:102A6000F5E10C94141E20918C0230918D022817F0
:102A70003907A1F090938D0280938C02E09190022F
:102A8000F0919102309751F024E029839B838A834F
:102A90000084F185E02DCE01019609952396E2E0B0
:102AA0000C94301E20910201309103012E5F3F4FA4
:102AB00080910E01882379F080919E0287FF0BC0E0
:102AC00020910001309101012E5F3F4F9EE180E097
:102AD000915018F4089596E0FACFF90141919F01C1
:102AE0004423B1F38F5FF4CF882321F190910E013D
:102AF000992311F190919E0297FF1EC0E82FE69551
:102B0000E695E695EE31B0F4209100013091010197
:102B1000E20FF32FF11D228130E0877041E050E099
:102B200002C0440F551F8A95E2F72423352381E024
:102B3000232B91F480E0089520910201309103014C
:102B4000F9013296285F3F4F9191981721F0E217D3
:102B5000F307D1F7EFCF81E008959C01FC01329695
:102B60009FEF80E04191461751F09F3F19F44111CA
:102B700001C0982F8F5F8630A9F79F3F09F4089511
:102B8000290F311D97FD3A95F90162830895FC01E3
:102B9000329608962191261303C0DF0111971C92EB
:102BA000E817F907B9F70895E62FE695E695E69553
:102BB000EE3168F4E80FF92FF11D677021E030E085
:102BC00001C0220F6A95EAF78281822B82830895E1
:102BD000E62FE695E695E695EE3170F4E80FF92FCD
:102BE000F11D677021E030E001C0220F6A95EAF71D
:102BF00020958281282322830895682F80910E01D9
:102C0000882359F080919E0287FF07C080910001C0
:102C1000909101010E94D415089580910201909134
:102C200003010E94AD150895682F80910E0188233D
:102C300059F080919E0287FF07C08091000190911A
:102C400001010E94E815089580910201909103010D
:102C50000E94C715089580910E01882379F0809114
:102C60009E0287FF0BC0E0910001F09101013296B6
:102C70008EE1DF011D928A95E9F70895E091020146
:102C8000F0910301329686E0F4CF08950E94451634
:102C90000895811106C081E0809392020E94461639
:102CA000089582E0F9CF83E0809392020E94461655
:102CB00008950E944916089581E0809392020E942F
:102CC000461608950E945C160895089508950E947E
:102CD00066160895089508950E9465160895CF9385
:102CE0000E946A160E940B110E946B16C0E08C2F86
:102CF0000E944010892B31F4CF5FC430C1F780E0CF
:102D0000CF91089581E0FCCF85B7806885BF85B7F6
:102D1000806885BF08951F921FB61F9211248F935C
:102D20009F93AF93BF9380919302811113C08091C1
:102D3000B0029091B102A091B202B091B30241965B
:102D4000A11DB11D8093B0029093B102A093B20275
:102D5000B093B302BF91AF919F918F911F901FBE0F
:102D60001F9018958091B802843031F10E940103C0
:102D70001092930288E190E020E40FB6F894A895B1
:102D8000809360000FBE2093600083B7817F8460D2
:102D900083BF83B7816083BF7894889583B78E7F24
:102DA00083BF0FB6F894A8958091600088618093E6
:102DB0006000109260000FBE08950E94BD060E9440
:102DC0000603089582E084BD93E095BD9AEF97BD18
:102DD00080936E0008952FB7F8948091B00290917F
:102DE000B102A091B202B091B3022FBF08952FB7E4
:102DF000F8946091B0027091B1028091B20290910A
:102E0000B3022FBF08959C014FB7F8948091B00290
:102E10009091B102A091B202B091B3024FBF821B58
:102E2000930B089578941F921FB61F9211248F93CD
:102E30009F93AF93BF938091B0029091B102A09104
:102E4000B202B091B3020196A11DB11D8093B002F0
:102E50009093B102A093B202B093B302BF91AF912D
:102E60009F918F911F901FBE1F90189581E08093B6
:102E7000E00080E28093D8001092C9008FE19EE4C8
:102E80000197F1F700C0000087E090EBDC01809330
:102E9000C1029093C202A093C302B093C40288E11E
:102EA0009CE00FB6F894A895809360000FBE9093B5
:102EB0006000FFCF88E19CE00FB6F894A89580935E
:102EC00060000FBE90936000FFCF80919C02089538
:102ED00008959B01BA019091B8029430E9F48F7083
:102EE0008093E9009FEF8091E800915085FD06C036
:102EF00085ED8A95F1F700009111F5CF8091E800FA
:102F000085FF0AC050E040E0C9010E94631980912A
:102F1000E8008E778093E800089543E050E0BC011C
:102F200082E00E946917089540E250E0BC0182E00F
:102F30000E9469170895CF93DF93EC0148E050E0B9
:102F4000BC0181E00E94691788E0FE01A4E9B2E0BB
:102F500001900D928A95E1F7DF91CF9108958091CC
:102F6000B702811109C00E94F31A0E94501B809180
:102F7000E20084608093E20008951092B702089501
:102F80000E945C1608956091B40281E0611101C055
:102F900080E00E94531608959091B80281E0943029
:102FA00009F080E06091B4020E945916089542E051
:102FB00061EC81E00E946F1A42E261EC82E00E94C3
:102FC0006F1A9091B80281E0943009F080E060912E
:102FD000B4020E94491608958091BA02833009F420
:102FE00061C030F48130D1F1823009F49EC008957F
:102FF0008A3009F48AC08B3009F46FC0893009F037
:1030000050C08091B902813209F04BC08091BD025D
:103010009091BE02029708F044C08091E800877F3B
:103020008093E8008091E80082FF37C09091F30020
:103030008091F200029731F48091F100813011F01B
:10304000863021F48091F10080939C028091E80009
:103050008B778093E8000E94A31A23C08091B90265
:10306000813AF9F48091E800877F8093E8008091AD
:10307000BD029091BE02892B61F468E084E992E080
:1030800070E00E94B2198091E8008B778093E8008D
:10309000089560E090E080E0F3CF8091B802811164
:1030A000C1CF08958091B902813AD9F78091BD02CC
:1030B0009091BE02892BA9F78091E800877F8093C9
:1030C000E8008091E80080FFFCCF80910E018093A2
:1030D000F1008091E8008E77BCCF8091B9028132F7
:1030E00001F78091BD029091BE02892BD1F68091AB
:1030F000E800877F8093E8000E94A31A8091BB02BA
:1031000080930E010E94BD0608958091B90281321C
:1031100041F68091E800877F8093E8000E94A31A1F
:103120008091BC0280939D0208958091B902813AFA
:1031300009F0B7CF8091E800877F8093E800809105
:10314000E80080FFFCCF80919D02C1CF84B7877FCC
:1031500084BF0FB6F894A895809160008861809331
:103160006000109260000FBE80E890E00FB6F89407
:1031700080936100909361000FBE0E9462160895D3
:103180000E94F31A0E94501BE2EEF0E080818460FE
:10319000808378940E94CF1D089584E091E00E947E
:1031A000DA1408958091B802853031F48091B80224
:1031B000853019F00E94DD1608950E94B2160E9413
:1031C0006F16882399F38091B602882379F30E94C1
:1031D0004D190E94BD06EACF08959A014091BF02A1
:1031E0005091C0020E94F5180895492F5527433089
:1031F000510519F168F44130510509F444C04230D9
:10320000510509F445C090E080E050E040E025C061
:103210004132510549F142325105A9F784E490E069
:1032200042E153E061157105C1F08DE690E045EA99
:1032300052E06130710589F0E6CF99278130910520
:1032400081F0009729F00297F1F6ECE2F2E002C07B
:10325000E4E5F2E0849190E0AF01F901518340830D
:103260000895EEE3F2E0F6CF89E090E04AE652E01E
:103270006115710591F389E090E043E852E0613017
:10328000710559F3C0CF82E190E043E952E0E5CF08
:103290008BE390E048E552E0E0CF80E189BD82E138
:1032A00089BD09B400FEFDCF8091D8008F7D809349
:1032B000D8008091E00082608093E0008091E0007F
:1032C00081FDFCCF0895AF92BF92CF92DF92FF9223
:1032D0000F931F93CF93DF936C01EB018A010E9440
:1032E000C21AF82E811123C00115110539F0F80119
:1032F00080819181C81BD90BC80ED91EB12CA12C7D
:103300002097A9F08091E80085FD22C08091E80017
:103310008E778093E80001151105A1F0F8018081F6
:103320009181A80EB91EB182A08285E0F82E8F2D62
:10333000DF91CF911F910F91FF90DF90CF90BF90C1
:10334000AF9008950E94C21A8823D1F2F82EEFCFD1
:10335000F60181916F018093F1002197FFEFAF1A81
:10336000BF0ACECFFC018091BF029091C0028617A8
:103370009707A0F06115710529F49091E8009E77F8
:103380009093E80090E06115710551F4911108C027
:103390008091E80082FF34C080E00895BC01F2CF44
:1033A0008091B8028823C1F18530C1F18091E80095
:1033B00083FD30C08091E80082FDEACF8091E80073
:1033C00080FFE1CF8091F3002091F200382F61154A
:1033D000710519F02830310558F091E02830310599
:1033E00009F090E02091E8002E772093E800CBCF01
:1033F00081918093F100615071092F5F3F4FE7CFBA
:103400008091B802882341F0853041F08091E80036
:1034100083FFBECF81E0089582E0089583E00895A0
:10342000FC018091BF029091C00286179707A0F01F
:103430006115710529F48091E8008E778093E8008A
:1034400090E06115710551F4911108C08091E80078
:1034500082FF35C080E00895BC01F2CF8091B802B0
:103460008823C9F18530C9F18091E80083FD31C01E
:103470008091E80082FDEACF8091E80080FFE1CFF3
:103480008091F3002091F200382F6115710519F039
:103490002830310558F091E02830310509F090E0EE
:1034A0008091E8008E778093E800CBCF8491809361
:1034B000F1003196615071092F5F3F4FE6CF809147
:1034C000B802882341F0853041F08091E80083FF05
:1034D000BDCF81E0089582E0089583E00895982F9C
:1034E000973028F08F708093E90081E008959093E1
:1034F000E900242F762F50E0981731F07091EC00FE
:103500002091ED005091F00021FD02C09F5FE8CFB7
:103510003091EB003E7F3093EB003091ED003D7F2A
:103520003093ED003091EB0031603093EB007093FD
:10353000EC002093ED005093F0002091EE0027FD69
:10354000E5CF80E008958091B90287FF13C0809194
:10355000E80082FF06C08091E8008B778093E80046
:1035600004C08091B8028111F2CF08958091B80211
:103570008823D9F38091E80080FFF8CF8091E8009C
:103580008E77ECCF2091E4003091E50095E6A9011B
:103590002091EC00822F817020FF06C08091E8000E
:1035A00080FF06C080E008952091E80022FD1AC047
:1035B0008091B802882389F0853089F08091EB00F2
:1035C00085FD0FC02091E4003091E50042175307BC
:1035D000F9F29150E1F684E0089582E0089583E0E5
:1035E000089581E008950E94621B0E946A1BE0EE2C
:1035F000F0E0808181608083E8EDF0E080818F776A
:10360000808319BCA7EDB0E08C918E7F8C93808174
:103610008F7E80831092B70208950F931F93CF93EC
:10362000DF930E94621B0E946A1BC8EDD0E0888174
:103630008F77888388818068888388818F7D88835D
:1036400019BC1092B8021092B4021092B6021092F5
:10365000B50200EE10E0F80180818B7F80838881C5
:103660008160888342E060E080E00E946F1AE1EEB2
:10367000F0E080818E7F8083E2EEF0E080818160E7
:103680008083808188608083F80180818E7F808341
:10369000888180618883DF91CF911F910F91089578
:1036A000E8EDF0E080818F7E8083E7EDF0E08081BF
:1036B0008160808384E082BF81E08093B7020E94B2
:1036C0000D1B0895E8EDF0E080818E7F80831092DD
:1036D000E20008951092DA001092E10008951F921E
:1036E0000F920FB60F9211242F933F934F935F9336
:1036F0006F937F938F939F93AF93BF93EF93FF93BA
:103700008091E10082FF0BC08091E20082FF07C040
:103710008091E1008B7F8093E1000E94CE1D80911B
:10372000DA0080FF19C08091D80080FF15C0809119
:10373000DA008E7F8093DA008091D90080FF96C0F6
:1037400080E189BD82E189BD09B400FEFDCF81E041
:103750008093B8020E94AF178091E10080FF19C0EA
:103760008091E20080FF15C08091E2008E7F8093FF
:10377000E2008091E20080618093E2008091D800B5
:1037800080628093D80019BC85E08093B8020E94C3
:10379000C3178091E10084FF2BC08091E20084FF79
:1037A00027C080E189BD82E189BD89B5982F9170DC
:1037B00080FFFBCF8091D8008F7D8093D8008091CF
:1037C000E1008F7E8093E1008091E2008F7E809304
:1037D000E2008091E20081608093E2008091B40277
:1037E000882309F449C084E08093B8020E94CC1772
:1037F0008091E10083FF29C08091E20083FF25C012
:103800008091E100877F8093E10082E08093B8029D
:103810001092B4028091E1008E7F8093E10080914C
:10382000E2008E7F8093E2008091E20080618093CD
:10383000E20042E060E080E00E946F1A8091F000B8
:1038400088608093F0000E94C017FF91EF91BF91B4
:10385000AF919F918F917F916F915F914F913F9128
:103860002F910F900FBE0F901F90189519BC1092BA
:10387000B8020E94BD1770CF8091E30087FD93E0EE
:103880009093B802B3CF1F920F920FB60F921124EC
:103890002F933F934F935F936F937F938F939F9358
:1038A000AF93BF93CF93DF93EF93FF93D091E90052
:1038B000DF708091EC00C82FC17080FDC0E81092CD
:1038C000E9008091F000877F8093F00078940E9457
:1038D000871C1092E9008091F00088608093F000CE
:1038E000CD2BCF70C093E900FF91EF91DF91CF9185
:1038F000BF91AF919F918F917F916F915F914F9108
:103900003F912F910F900FBE0F901F901895AAE234
:10391000B0E0EDE8FCE10C94131E89EB92E02091FD
:10392000F100FC012193CF01F2E0813C9F07B9F740
:103930000E94EC178091E80083FF1EC18091B902BC
:103940009091BA029A3008F017C1E92FF0E0E251E5
:10395000F14E0C94FE1D803899F0823809F00CC1AC
:103960008091BD028F70873008F006C18093E90016
:103970008091EB0085FB882780F91092E90006C052
:103980008091B5029091B602911182609091E80009
:10399000977F9093E8008093F1001092F10080915E
:1039A000E8008E77E5C0882309F4D3C0823009F09F
:1039B000E3C08091BB028111D6C08091BD028F709F
:1039C0002FEF280F263008F0D7C08093E900209110
:1039D000EB0020FFC8C0933031F48091EB0080628F
:1039E0008093EB00C0C09091EB0090619093EB004E
:1039F00021E030E001C0220F8A95EAF72093EA0027
:103A00001092EA008091EB008860EACF8111B4C087
:103A10001091BB021F778091E3008078812B809307
:103A2000E3008091E800877F8093E8000E94A31A5A
:103A30008091E80080FFFCCF8091E3008068809354
:103A4000E30082E0111183E08093B80295C08058B2
:103A5000823008F091C08091BB029091BC028C3DF5
:103A600023E09207A1F583E08A838AE289834FB736
:103A7000F894DE01139620E03EE051E2E32FF0E0FF
:103A800050935700E49120FF03C0E295EF703F5F31
:103A9000EF708E2F90E0EA30C0F0C7968D939D9323
:103AA0002F5F243159F74FBF8091E800877F8093C3
:103AB000E8006AE270E0CE0101960E94B21980919E
:103AC000E8008B778093E80057C0C096E7CF6091FD
:103AD000BD027091BE02AE014F5F5F4F0E94ED18B4
:103AE000BC01892B09F448C09091E800977F90931E
:103AF000E80089819A810E94101AE1CF8038E1F5AF
:103B00008091E800877F8093E8008091B4028093E1
:103B1000F10045CF811130C09091BB02923060F529
:103B20008091E800877F8093E8009093B4020E9420
:103B3000A31A8091B402882311F084E005C080911B
:103B4000E30087FDFACF81E08093B8020E94D71787
:103B500013C08091BB02813079F481E0933009F089
:103B600080E08093B6021092E9008091E800877FA0
:103B70008093E8000E94A31A8091E80083FF0AC0A6
:103B80008091E800877F8093E8008091EB0080625D
:103B90008093EB00AA96E3E00C942F1E0895CF9338
:103BA0008091B8028823A1F0C091E900CF70909174
:103BB000EC00892F817090FD80E8C82B1092E900FD
:103BC0008091E80083FD0E94871CCF70C093E900BC
:103BD000CF91089597FB072E16F4009407D077FD38
:103BE00009D00E943B1E07FC05D03EF490958195BC
:103BF0009F4F0895709561957F4F0895EE0FFF1FB9
:103C00000590F491E02D09942F923F924F925F928C
:103C10006F927F928F929F92AF92BF92CF92DF92DC
:103C2000EF92FF920F931F93CF93DF93CDB7DEB741
:103C3000CA1BDB0B0FB6F894DEBF0FBECDBF0994D5
:103C40002A88398848885F846E847D848C849B842C
:103C5000AA84B984C884DF80EE80FD800C811B813A
:103C6000AA81B981CE0FD11D0FB6F894DEBF0FBE69
:103C7000CDBFED010895AA1BBB1B51E107C0AA1FD0
:103C8000BB1FA617B70710F0A61BB70B881F991FFD
:103C90005A95A9F780959095BC01CD010895FB0137
:103CA000DC0104C08D910190801921F441505040F5
:103CB000C8F7881B990B0895FB01DC0102C0019035
:103CC0000D9241505040D8F70895F999FECF92BD1A
:103CD00081BDF89A992780B50895A8E1B0E042E047
:103CE00050E00C94A91EDC01A40FB51F41505040B8
:103CF00048F0CB01840F951F2E910E94841E4150E5
:103D00005040D0F70895262FF999FECF92BD81BD7E
:103D1000F89A019700B4021639F01FBA20BD0FB609
:103D2000F894FA9AF99A0FBE08950396272F0E94E5
:103D3000841E0E94831E252F0E94841E242F0C9413
:103D4000841E0196272F0E94841E0C94831EDC0182
:103D5000CB01FC01F999FECF06C0F2BDE1BDF89A96
:103D6000319600B40D9241505040B8F70895F89440
:103D7000FFCFC204C204120512057705F104F10455
:103D8000F1049305040613061306AE132214B613AA
:103D900080138413BA138813BE13CA1394131B140D
:103DA0009813CE139C13D213FA13A013D613011435
:103DB000A613DC13E4138C13C2139013C613AA13B7
:103DC000E013F0130A1419147A13B2132914B3145C
:103DD000B914A214AD14BF14C514CB14AB1CD31C5E
:103DE000BC1DD31CBC1D061D271DBC1D7E1D8A1DB0
:103DF0003602560265179B17941768178D1701E254
:103E000000E900EA00B500B600B700CD008301CCA0
:103E1000008A019201940121022302240225022634
:103E20000227022A02B300B4006F0070009F01CB8A
:103E3000019F02A002818283E200E900EA00B5004E
:103E4000B600B700CD008301CC008A019201940135
:103E50002102230224022502260227022A02B3009D
:103E6000B4006F0070009F01CB019F02A00281820D
:103E700083929496973435366667F7F6F5F0F1F449
:103E8000C600FF0100010000FFFF0000010001FF6C
:063E9000009193909500E3
:00000001FF
